:100000000C944D010C9475010C9475010C947501C0
:100010000C9475010C9475010C9475010C94750188
:100020000C9475010C9475010C9475010C94750178
:100030000C9475010C9475010C9475010C94750168
:100040000C9460050C9475010C94D0050C94AA05D1
:100050000C9475010C9475010C9475010C94750148
:100060000C9475010C947501000000000000005F05
:1000700000000007000700147F147F14242A7F2A41
:10008000122313086462364955225000050300000C
:10009000001C2241000041221C0014083E081408E4
:1000A000083E0808005030000008080808080060F2
:1000B00060000020100804023E5149453E00427F86
:1000C000400042615149462141454B311814127F8D
:1000D0001027454545393C4A494930017109050316
:1000E0003649494936064949291E0036360000007E
:1000F0005636000008142241001414141414004150
:100100002214080201510906324979413E7E11113B
:10011000117E7F494949363E414141227F4141227A
:100120001C7F494949417F090909013E4149497AF2
:100130007F0808087F00417F41002040413F017F48
:10014000081422417F404040407F020C027F7F0420
:1001500008107F3E4141413E7F090909063E415159
:10016000215E7F09192946464949493101017F012C
:10017000013F4040403F1F2040201F3F4038403F4C
:100180006314081463070870080761514945430068
:100190007F41410002040810200041417F00040219
:1001A0000102044040404040000102040020545439
:1001B00054787F48444438384444442038444448C0
:1001C0007F3854545418087E0901020C5252523E92
:1001D0007F0804047800447D40002040443D007FB7
:1001E0001028440000417F40007C041804787C08FB
:1001F00004047838444444387C1414140808141453
:10020000187C7C080404084854545420043F44409B
:10021000203C4040207C1C2040201C3C4030403C86
:1002200044281028440C5050503C4464544C440022
:100230000836410000007F00000041360800100829
:100240000810080000000000000000080002010083
:100250000003040700000000000000000000000090
:10026000250028002B0000000000240027002A00A1
:10027000040404040404040402020202020203034C
:100280000303030301020408102040800102040854
:100290001020010204081020020611241FBECFEF17
:1002A000D8E0DEBFCDBF11E0A0E0B1E0EEEFF4E1B9
:1002B00002C005900D92AE34B107D9F722E0AEE44A
:1002C000B1E001C01D92A234B207E1F711E0CDE424
:1002D000D1E004C02197FE010E94770ACC34D107F7
:1002E000C9F70E9441060C947D0A0C94000090E02E
:1002F000FC01EC57FD4F249180599D4FFC018491E6
:10030000882399F090E0880F991FFC01EA59FD4F6E
:10031000A591B491FC01E45AFD4F859194918FB75A
:10032000F894EC91E22BEC938FBF089590E0FC01E0
:10033000E85BFD4F2491FC01EC57FD4F3491FC012B
:10034000E059FD4FE491EE23C9F0222339F0233028
:1003500001F1A8F4213019F1223029F1F0E0EE0F7B
:10036000FF1FE45AFD4FA591B4918FB7F894EC911B
:10037000611126C030953E233C938FBF08952730EE
:10038000A9F02830C9F0243049F7809180008F7D92
:1003900003C0809180008F7780938000DFCF84B589
:1003A0008F7784BDDBCF84B58F7DFBCF8091B0008C
:1003B0008F778093B000D2CF8091B0008F7DF9CF3E
:1003C0003E2BDACF3FB7F8948091530190915401BE
:1003D000A0915501B091560126B5A89B05C02F3FAD
:1003E00019F00196A11DB11D3FBFBA2FA92F982F5B
:1003F0008827BC01CD01620F711D811D911D42E056
:10040000660F771F881F991F4A95D1F708958F921D
:100410009F92AF92BF92CF92DF92EF92FF920E9493
:10042000E2014B015C0184E6C82ED12CE12CF12CB9
:100430000E94E201681979098A099B09683E7340A4
:1004400081059105A8F321E0C21AD108E108F1085D
:1004500088EE880E83E0981EA11CB11CC114D10443
:10046000E104F10429F7FF90EF90DF90CF90BF9067
:10047000AF909F908F900895AF92BF92CF92DF92EE
:10048000EF92FF920F931F93CF93DF936C017B0149
:100490008B01040F151FEB015E01AE18BF08C017DA
:1004A000D10759F06991D601ED91FC910190F0814D
:1004B000E02DC6010995892B79F7C501DF91CF9110
:1004C0001F910F91FF90EF90DF90CF90BF90AF9072
:1004D0000895FC01538D448D252F30E0842F90E04A
:1004E000821B930B541710F0CF960895019708952F
:1004F000FC01918D828D981761F0A28DAE0FBF2FF8
:10050000B11D5D968C91928D9F5F9F73928F90E04D
:1005100008958FEF9FEF0895FC01918D828D9817BC
:1005200031F0828DE80FF11D858D90E008958FEFF9
:100530009FEF0895FC01918D228D892F90E0805CC2
:100540009F4F821B91098F739927089587E591E04A
:100550000E949A0221E0892B09F420E0822F08955D
:1005600080E090E0892B29F00E94A60281110C9472
:1005700000000895FC01A48DA80FB92FB11DA35A46
:10058000BF4F2C91848D90E001968F739927848FB3
:10059000A689B7892C93A089B1898C9183708064D6
:1005A0008C93938D848D981306C00288F389E02D77
:1005B00080818F7D80830895EF92FF920F931F9328
:1005C000CF93DF93EC0181E0888F9B8D8C8D981306
:1005D0001AC0E889F989808185FF15C09FB7F89412
:1005E000EE89FF896083E889F9898081837080645E
:1005F00080839FBF81E090E0DF91CF911F910F91A9
:10060000FF90EF900895F62E0B8D10E00F5F1F4FB7
:100610000F731127E02E8C8D8E110CC00FB607FCC6
:10062000FACFE889F989808185FFF5CFCE010E9454
:10063000BA02F1CFEB8DEC0FFD2FF11DE35AFF4F06
:10064000F0829FB7F8940B8FEA89FB8980818062E2
:10065000CFCFCF93DF93EC01888D8823B9F0AA899F
:10066000BB89E889F9898C9185FD03C0808186FD6D
:100670000DC00FB607FCF7CF8C9185FFF2CF8081BC
:1006800085FFEDCFCE010E94BA02E9CFDF91CF9175
:100690000895089590E080E00895FB010190002006
:1006A000E9F73197AF01461B570BDC01ED91FC9147
:1006B0000280F381E02D09948F929F92AF92BF92B6
:1006C000EF92FF920F931F93CF93DF93CDB7DEB7D7
:1006D000A1970FB6F894DEBF0FBECDBF7C01FA0123
:1006E000CB0119A2223008F42AE08E010F5D1F4FC2
:1006F000822E912CB12CA12CBF01A50194010E9446
:10070000410AF901CA016A300CF5605DD8016E93A7
:100710008D01232B242B252B79F790E080E0109777
:1007200021F0BD01C7010E944D03A1960FB6F894B8
:10073000DEBF0FBECDBFDF91CF911F910F91FF9014
:10074000EF90BF90AF909F908F900895695CDECF3F
:10075000BC0184EF91E00C944D032F923F924F9295
:100760005F926F927F928F929F92AF92BF92CF9241
:10077000DF92EF92FF921F93CF93DF93EC016A0118
:100780007B01722EAB019601CB01B6010E94280AB3
:100790006EE171E0811126C046015701E894B7F877
:1007A0002FEF3FEF4FE75FE7C501B4010E94280A32
:1007B00081110CC02FEF3FEF4FE75FE7C501B40198
:1007C0000E945E0862E271E0181664F02FEF3FEFBE
:1007D0004FE75FE4C701B6010E94B6091816B4F4EA
:1007E00066E271E0CE01DF91CF911F91FF90EF9013
:1007F000DF90CF90BF90AF909F908F907F906F9041
:100800005F904F903F902F900C944D032FEF3FEF50
:100810004FE75FECC701B6010E945E0887FDE0CF9D
:1008200020E030E0A901C701B6010E945E08312C2A
:10083000212C87FF0DC0E881F9810190F081E02D26
:100840006DE2CE0109951C01F7FAF094F7F8F094E7
:1008500010E060E070E080E09FE3711641F020E07E
:1008600030E040E251E40E9463081F5FF6CFA70129
:1008700096010E94F2072B013C010E94D5084B0112
:100880005C012AE0BC01A401CE010E945C037C0152
:10089000E20CF31C1123E1F1C501B4010E9404092B
:1008A0009B01AC01C301B2010E94F1074B015C0145
:1008B000E881F9810190F081E02D6EE2CE01099589
:1008C000E80EF91E115020F120E030E040E251E442
:1008D000C501B4010E94BB092B013C010E94D5084F
:1008E0004B01B12CA12C2AE0B501A401CE010E943C
:1008F0005C03E80EF91EC501B4010E9404099B01C6
:10090000AC01C301B2010E94F1074B015C01DACFD7
:10091000C701DF91CF911F91FF90EF90DF90CF90B3
:10092000BF90AF909F908F907F906F905F904F900F
:100930003F902F900895EF92FF920F931F93CF93C4
:10094000DF93EC01042F8E810E94960160E0888580
:100950000E949601FC80ED8018E0602F661F6627DC
:10096000661F8E2D0E949601000F61E08F2D0E9460
:10097000960160E08F2D0E949601115071F761E0A1
:100980008885DF91CF911F910F91FF90EF900C948C
:100990009601CF93DF93C4EFD1E01C8690E06B8586
:1009A00029E3629F612D1124669570E06F5F7F4F90
:1009B0000E942D0A8D8740E860E0CE010E949B04D2
:1009C0004D85406460E0CE01DF91CF910C949B0493
:1009D000CF92DF92EF92FF920F931F93CF93DF930B
:1009E00000D000D01F92CDB7DEB767FD66C07C0196
:1009F000862F90E0603208F44FC0809725E0289F52
:100A0000B001299F700D112468597F4F45E050E0D7
:100A1000CE0101960E94E8078E010F5F1F4F68010B
:100A200085E0C80ED11CF80141918F0161E0C7013A
:100A30000E949B040C151D05B1F740E061E0C70161
:100A40000E949B04F701848590E00696628570E021
:100A50000E942D0A8487892B79F4858590E0019680
:100A6000638529E3629F612D1124669570E06F5FB5
:100A70007F4F0E942D0A858781E090E00F900F90B4
:100A80000F900F900F90DF91CF911F910F91FF90DA
:100A9000EF90DF90CF900895FC013796EE0FFF1F87
:100AA000EE0DFF1D008111810115110509F0B7CF71
:100AB00045E050E068E670E0ABCF90E080E0DECF4C
:100AC0001F920F920FB60F9211242F933F938F9383
:100AD0009F93AF93BF9380914F0190915001A0914C
:100AE0005101B091520130914E0123E0230F2D3777
:100AF00058F50196A11DB11D20934E0180934F0121
:100B000090935001A0935101B093520180915301F1
:100B100090915401A0915501B09156010196A11DEB
:100B2000B11D8093530190935401A0935501B0934C
:100B30005601BF91AF919F918F913F912F910F904F
:100B40000FBE0F901F90189526E8230F0296A11D47
:100B5000B11DD2CF1F920F920FB60F9211242F9377
:100B60003F934F935F936F937F938F939F93AF9335
:100B7000BF93EF93FF9387E591E00E94BA02FF9144
:100B8000EF91BF91AF919F918F917F916F915F9105
:100B90004F913F912F910F900FBE0F901F9018957E
:100BA0001F920F920FB60F9211242F938F939F9342
:100BB000EF93FF93E0916701F09168018081E091EC
:100BC0006D01F0916E0182FD1BC0908180917001DA
:100BD0008F5F8F7320917101821741F0E091700156
:100BE000F0E0E95AFE4F958F80937001FF91EF91ED
:100BF0009F918F912F910F900FBE0F901F9018957E
:100C00008081F4CFE7E5F1E01382128288EE93E071
:100C1000A0E0B0E084839583A683B78384E091E06D
:100C20009183808385EC90E09587848784EC90E0C5
:100C30009787868780EC90E0918B808B81EC90E0A9
:100C4000938B828B82EC90E0958B848B86EC90E08A
:100C5000978B868B118E128E138E148EE4EFF1E03B
:100C60001382128286E191E09183808383E0848302
:100C700084E0858385E0868386E0878387E08087BC
:100C80000895789484B5826084BD84B5816084BD04
:100C900085B5826085BD85B5816085BD80916E001A
:100CA000816080936E00109281008091810082604B
:100CB0008093810080918100816080938100809188
:100CC00080008160809380008091B1008460809377
:100CD000B1008091B00081608093B00080917A0073
:100CE000846080937A0080917A00826080937A0099
:100CF00080917A00816080937A0080917A00806888
:100D000080937A001092C10084E58093FE0180E315
:100D10008093FF011092FD011092000210920102D7
:100D2000E2E0F2E080E4DF011D928A95E9F780912C
:100D3000F8010E9477018091F9010E94770180916A
:100D4000FA010E9477018091FB010E947701809156
:100D5000FC010E94770161E08091FB010E949601F5
:100D600061E08091FC010E94960160E08091FB01AE
:100D70000E9496010E94070261E08091FB010E949F
:100D8000960141E260E084EF91E00E949B0443E120
:100D900060E084EF91E00E949B048091FD0142ECB1
:100DA000813039F440EE60E084EF91E00E949B04D2
:100DB00045E060E084EF91E00E949B0440E260E047
:100DC00084EF91E00E949B0449E060E084EF91E0B1
:100DD0000E949B0480E00E94C904D0E0C0E08091A2
:100DE000FF018695869586959091FE01899FC001A9
:100DF0001124C817D90740F440E061E084EF91E086
:100E00000E949B042196EBCF80E00E94C90448E039
:100E100060E084EF91E00E949B044CE060E084EF8E
:100E200091E00E949B040E94070240E860E084EF8A
:100E300091E00E949B0440E460E084EF91E00E9416
:100E40009B04E0916701F091680182E08083E0916A
:100E50006301F09164011082E0916501F0916601F7
:100E60008FEC808310926F01E0916B01F0916C0127
:100E700086E08083E0916901F0916A018081806160
:100E80008083E0916901F0916A01808188608083AC
:100E9000E0916901F0916A01808180688083E0912E
:100EA0006901F0916A0180818F7D8083C0E0D0E08C
:100EB00080E00E94C9048AE291E00E94A80382E0D7
:100EC0000E94C90487E391E00E94A80322E040E069
:100ED00050E060E271EC84EF91E00E94AD038CE39E
:100EE00091E00E94A80383E00E94C9048FE391E08F
:100EF0000E94A80322E040E050E0BA0184EF91E0B4
:100F00000E94AD038CE391E00E94A80384E00E945C
:100F1000C90484E491E00E94A80322E040E050E08C
:100F2000BA0184EF91E00E94AD038CE391E00E944E
:100F3000A80385E00E94C90489E491E00E94A80307
:100F400022E040E050E0BA0184EF91E00E94AD035E
:100F50008CE391E00E94A80322E040E050E060E2D0
:100F600071EC87E591E00E94AD0387E591E00E9476
:100F7000290322E040E050E0BA0187E591E00E94B9
:100F8000AD0387E591E00E94290322E040E050E0B4
:100F9000BA0187E591E00E94AD0387E591E00E94E8
:100FA000290322E040E050E0BA0187E591E00E9489
:100FB000AD0387E591E00E942903209709F478CFDB
:100FC0000E94A602882309F473CF0E94000070CF0C
:100FD000FB01DC0102C005900D9241505040D8F752
:100FE00008955058BB27AA270E9409080C947C0931
:100FF0000E946E0938F00E94750920F039F49F3F75
:1010000019F426F40C946B090EF4E095E7FB0C94AC
:101010006509E92F0E948D0958F3BA176207730713
:101020008407950720F079F4A6F50C94AF090EF427
:10103000E0950B2EBA2FA02D0B01B90190010C01E8
:10104000CA01A0011124FF27591B99F0593F50F400
:10105000503E68F11A16F040A22F232F342F442758
:10106000585FF3CF469537952795A795F040539550
:10107000C9F77EF41F16BA0B620B730B840BBAF020
:101080009150A1F0FF0FBB1F661F771F881FC2F78B
:101090000EC0BA0F621F731F841F48F4879577959F
:1010A0006795B795F7959E3F08F0B0CF9395880F59
:1010B00008F09927EE0F9795879508950E944109AA
:1010C00008F481E008950E9477080C947C090E943E
:1010D000750958F00E946E0940F029F45F3F29F02D
:1010E0000C94650951110C94B0090C946B090E9481
:1010F0008D0968F39923B1F3552391F3951B550B93
:10110000BB27AA2762177307840738F09F5F5F4FDA
:10111000220F331F441FAA1FA9F335D00E2E3AF019
:10112000E0E832D091505040E695001CCAF72BD031
:10113000FE2F29D0660F771F881FBB1F2617370782
:101140004807AB07B0E809F0BB0B802DBF01FF27B4
:1011500093585F4F3AF09E3F510578F00C94650923
:101160000C94B0095F3FE4F3983ED4F386957795ED
:101170006795B795F7959F5FC9F7880F911D96956D
:10118000879597F90895E1E0660F771F881FBB1FC9
:10119000621773078407BA0720F0621B730B840B76
:1011A000BA0BEE1F88F7E09508950E94950988F024
:1011B0009F5798F0B92F9927B751B0F0E1F0660F1B
:1011C000771F881F991F1AF0BA95C9F714C0B1305C
:1011D00091F00E94AF09B1E008950C94AF09672F18
:1011E000782F8827B85F39F0B93FCCF3869577958B
:1011F0006795B395D9F73EF4909580957095619574
:101200007F4F8F4F9F4F0895E89409C097FB3EF49E
:1012100090958095709561957F4F8F4F9F4F992343
:10122000A9F0F92F96E9BB279395F69587957795C1
:101230006795B795F111F8CFFAF4BB0F11F460FF81
:101240001BC06F5F7F4F8F4F9F4F16C0882311F0D9
:1012500096E911C0772321F09EE8872F762F05C0ED
:10126000662371F096E8862F70E060E02AF09A9588
:10127000660F771F881FDAF7880F9695879597F97D
:101280000895990F0008550FAA0BE0E8FEEF161617
:101290001706E807F907C0F012161306E407F5076A
:1012A00098F0621B730B840B950B39F40A2661F0DE
:1012B000232B242B252B21F408950A2609F4A14081
:1012C000A6958FEF811D811D089597F99F6780E88E
:1012D00070E060E008959FEF80EC089500240A9488
:1012E0001616170618060906089500240A94121601
:1012F0001306140605060895092E0394000C11F434
:10130000882352F0BB0F40F4BF2B11F460FF04C0E0
:101310006F5F7F4F8F4F9F4F089557FD9058440F39
:10132000551F59F05F3F71F04795880F97FB991F44
:1013300061F09F3F79F08795089512161306140601
:10134000551FF2CF4695F1DF08C01616170618068E
:10135000991FF1CF86957105610508940895E89469
:10136000BB2766277727CB0197F908950E9441098B
:1013700008F48FEF08950E94CE090C947C090E9416
:101380006E0938F00E94750920F0952311F00C9435
:1013900065090C946B0911240C94B0090E948D0905
:1013A00070F3959FC1F3950F50E0551F629FF001B8
:1013B000729FBB27F00DB11D639FAA27F00DB11DD1
:1013C000AA1F649F6627B00DA11D661F829F22275A
:1013D000B00DA11D621F739FB00DA11D621F839FE1
:1013E000A00D611D221F749F3327A00D611D231FB7
:1013F000849F600D211D822F762F6A2F11249F5705
:1014000050409AF0F1F088234AF0EE0FFF1FBB1F07
:10141000661F771F881F91505040A9F79E3F5105C6
:1014200080F00C9465090C94B0095F3FE4F3983E9A
:10143000D4F3869577956795B795F795E7959F5F70
:10144000C1F7FE2B880F911D9695879597F9089502
:101450000E944109880B990B089597FB072E16F4FB
:10146000009407D077FD09D00E94630A07FC05D0DD
:101470003EF4909581959F4F0895709561957F4FAB
:101480000895A1E21A2EAA1BBB1BFD010DC0AA1FC5
:10149000BB1FEE1FFF1FA217B307E407F50720F0DD
:1014A000A21BB30BE40BF50B661F771F881F991F58
:1014B0001A9469F760957095809590959B01AC01A1
:1014C000BD01CF010895AA1BBB1B51E107C0AA1F94
:1014D000BB1FA617B70710F0A61BB70B881F991FD5
:1014E0005A95A9F780959095BC01CD010895EE0F0E
:0E14F000FF1F0590F491E02D0994F894FFCFB2
:1014FE0000000000DC023C02690229039A02780215
:10150E008C0200000000E8043C024A0349036E61AD
:10151E006E00696E66006F7666002020564F4C5442
:10152E00494D4554524F0056313A20002056005630
:0E153E00323A200056333A200056343A20004C
:00000001FF
