:020000040000FA
:100000000C9452010C947A010C947A010C947A01AC
:100010000C947A010C947A010C947A010C947A0174
:100020000C947A010C947A010C947A010C947A0164
:100030000C947A010C947A010C947A010C947A0154
:100040000C94DC050C947A010C944C060C94260656
:100050000C947A010C947A010C947A010C947A0134
:100060000C947A010C947A01000000000000005FFB
:1000700000000007000700147F147F14242A7F2A41
:10008000122313086462364955225000050300000C
:10009000001C2241000041221C0014083E081408E4
:1000A000083E0808005030000008080808080060F2
:1000B00060000020100804023E5149453E00427F86
:1000C000400042615149462141454B311814127F8D
:1000D0001027454545393C4A494930017109050316
:1000E0003649494936064949291E0036360000007E
:1000F0005636000008142241001414141414004150
:100100002214080201510906324979413E7E11113B
:10011000117E7F494949363E414141227F4141227A
:100120001C7F494949417F090909013E4149497AF2
:100130007F0808087F00417F41002040413F017F48
:10014000081422417F404040407F020C027F7F0420
:1001500008107F3E4141413E7F090909063E415159
:10016000215E7F09192946464949493101017F012C
:10017000013F4040403F1F2040201F3F4038403F4C
:100180006314081463070870080761514945430068
:100190007F41410002040810200041417F00040219
:1001A0000102044040404040000102040020545439
:1001B00054787F48444438384444442038444448C0
:1001C0007F3854545418087E0901020C5252523E92
:1001D0007F0804047800447D40002040443D007FB7
:1001E0001028440000417F40007C041804787C08FB
:1001F00004047838444444387C1414140808141453
:10020000187C7C080404084854545420043F44409B
:10021000203C4040207C1C2040201C3C4030403C86
:1002200044281028440C5050503C4464544C440022
:100230000836410000007F00000041360800100829
:100240000810080000000000000000002400270043
:100250002A0000000000250028002B0000000000FC
:1002600023002600290004040404040404040202F8
:100270000202020203030303030301020408102025
:100280004080010204081020010204081020000030
:100290000008000201000003040700000000000045
:1002A00000007E0611241FBECFEFD8E0DEBFCDBF19
:1002B00011E0A0E0B1E0E0EAFBE102C005900D92A0
:1002C000A035B107D9F722E0A0E5B1E001C01D9249
:1002D000A636B207E1F711E0C2E5D1E004C02197EC
:1002E000FE010E94C80DC135D107C9F70E94BD06A5
:1002F0000C94CE0D0C940000833081F028F48130F2
:1003000099F08230A9F008958730A9F08830C9F0BB
:100310008430B1F4809180008F7D03C08091800093
:100320008F7780938000089584B58F7784BD08957A
:1003300084B58F7DFBCF8091B0008F778093B00024
:1003400008958091B0008F7DF9CFCF93DF93282F50
:1003500030E0F901E257FD4F8491F901E658FD4F75
:10036000D491F901EA59FD4FC491CC23A1F0811138
:100370000E947C01EC2FF0E0EE0FFF1FE45AFD4FCE
:10038000A591B491EC91ED2381E090E009F480E037
:10039000DF91CF91089580E090E0FACF1F93CF9343
:1003A000DF93282F30E0F901E257FD4F8491F901E6
:1003B000E658FD4FD491F901EA59FD4FC491CC2381
:1003C000A9F0162F81110E947C01EC2FF0E0EE0FB6
:1003D000FF1FEE5AFD4FA591B4918FB7F894EC91A1
:1003E000111108C0D095DE23DC938FBFDF91CF9130
:1003F0001F910895DE2BF8CFCF93DF9390E0FC019F
:10040000E658FD4F24918A599D4FFC018491882321
:10041000D1F090E0880F991FFC01E85BFD4FA5919A
:10042000B491FC01EE5AFD4FC591D49161110EC0FB
:100430009FB7F8948C91E22FE0958E238C932881BE
:10044000E223E8839FBFDF91CF9108958FB7F8949F
:10045000EC91E22BEC938FBFF6CF8E5080648093AB
:100460007C0080917A00806480937A0080917A0089
:1004700086FDFCCF809178009091790008953FB778
:10048000F8948091770190917801A0917901B091D1
:100490007A0126B5A89B05C02F3F19F00196A11D32
:1004A000B11D3FBFBA2FA92F982F8827BC01CD01BE
:1004B000620F711D811D911D42E0660F771F881F1D
:1004C000991F4A95D1F708958F929F92AF92BF924C
:1004D000CF92DF92EF92FF926B017C010E943F026C
:1004E0004B015C01C114D104E104F104B9F00E9494
:1004F0003F02681979098A099B09683E73408105A2
:10050000910580F321E0C21AD108E108F10888EED4
:10051000880E83E0981EA11CB11CE4CFFF90EF90E1
:10052000DF90CF90BF90AF909F908F900895AF9243
:10053000BF92CF92DF92EF92FF920F931F93CF93D0
:10054000DF936C017B018B01040F151FEB015E0132
:10055000AE18BF08C017D10759F06991D601ED91C7
:10056000FC910190F081E02DC6010995892B79F766
:10057000C501DF91CF911F910F91FF90EF90DF9018
:10058000CF90BF90AF900895FC01538D448D252FDF
:1005900030E0842F90E0821B930B541710F0CF961D
:1005A000089501970895FC01918D828D981761F04F
:1005B000A28DAE0FBF2FB11D5D968C91928D9F5F66
:1005C0009F73928F90E008958FEF9FEF0895FC0145
:1005D000918D828D981731F0828DE80FF11D858DF8
:1005E00090E008958FEF9FEF0895FC01918D228D8B
:1005F000892F90E0805C9F4F821B91098F73992710
:1006000008958BE791E00E94F50221E0892B09F41F
:1006100020E0822F089580E090E0892B29F00E944D
:10062000010381110C9400000895FC01A48DA80F12
:10063000B92FB11DA35ABF4F2C91848D90E0019624
:100640008F739927848FA689B7892C93A089B18944
:100650008C91837080648C93938D848D981306C0E5
:100660000288F389E02D80818F7D80830895EF9249
:10067000FF920F931F93CF93DF93EC0181E0888F5C
:100680009B8D8C8D98131AC0E889F989808185FF2C
:1006900015C09FB7F894EE89FF896083E889F989CE
:1006A00080818370806480839FBF81E090E0DF91D0
:1006B000CF911F910F91FF90EF900895F62E0B8D23
:1006C00010E00F5F1F4F0F731127E02E8C8D8E11DE
:1006D0000CC00FB607FCFACFE889F989808185FF45
:1006E000F5CFCE010E941503F1CFEB8DEC0FFD2F5E
:1006F000F11DE35AFF4FF0829FB7F8940B8FEA8900
:10070000FB8980818062CFCFCF93DF93EC01888D0E
:100710008823B9F0AA89BB89E889F9898C9185FD7C
:1007200003C0808186FD0DC00FB607FCF7CF8C910A
:1007300085FFF2CF808185FFEDCFCE010E941503AA
:10074000E9CFDF91CF910895089590E080E008957A
:10075000FB0101900020E9F73197AF01461B570BD1
:10076000DC01ED91FC910280F381E02D09948F92E0
:100770009F92AF92BF92EF92FF920F931F93CF93EE
:10078000DF93CDB7DEB7A1970FB6F894DEBF0FBEEB
:10079000CDBF7C01FA01CB0119A2223008F42AE076
:1007A0008E010F5D1F4F822E912CB12CA12CBF0109
:1007B000A50194010E94920DF901CA016A300CF55D
:1007C000605DD8016E938D01232B242B252B79F7A7
:1007D00090E080E0109721F0BD01C7010E94A803BE
:1007E000A1960FB6F894DEBF0FBECDBFDF91CF91BB
:1007F0001F910F91FF90EF90BF90AF909F908F90BF
:100800000895695CDECFBC0188E192E00C94A803F6
:100810002F923F924F925F926F927F928F929F9210
:10082000AF92BF92CF92DF92EF92FF921F93CF933E
:10083000DF93EC016A017B01722EAB019601CB01C3
:10084000B6010E94790D6EE171E0811126C046016A
:100850005701E894B7F82FEF3FEF4FE75FE7C50187
:10086000B4010E94790D81110CC02FEF3FEF4FE7CB
:100870005FE7C501B4010E94AF0B62E271E0181698
:1008800064F02FEF3FEF4FE75FE4C701B6010E942E
:10089000070D1816B4F466E271E0CE01DF91CF9136
:1008A0001F91FF90EF90DF90CF90BF90AF909F90FF
:1008B0008F907F906F905F904F903F902F900C940F
:1008C000A8032FEF3FEF4FE75FECC701B6010E948F
:1008D000AF0B87FDE0CF20E030E0A901C701B601F2
:1008E0000E94AF0B312C212C87FF0DC0E881F981CC
:1008F0000190F081E02D6DE2CE0109951C01F7FA1F
:10090000F094F7F8F09410E060E070E080E09FE38E
:10091000711641F020E030E040E251E40E94B40B57
:100920001F5FF6CFA70196010E94430B2B013C01EC
:100930000E94260C4B015C012AE0BC01A401CE01FF
:100940000E94B7037C01E20CF31C1123E1F1C50105
:10095000B4010E94550C9B01AC01C301B2010E947D
:10096000420B4B015C01E881F9810190F081E02D9F
:100970006EE2CE010995E80EF91E115020F120E03B
:1009800030E040E251E4C501B4010E940C0D2B019E
:100990003C010E94260C4B01B12CA12C2AE0B50190
:1009A000A401CE010E94B703E80EF91EC501B401EF
:1009B0000E94550C9B01AC01C301B2010E94420B85
:1009C0004B015C01DACFC701DF91CF911F91FF90FE
:1009D000EF90DF90CF90BF90AF909F908F907F90DF
:1009E0006F905F904F903F902F900895EF92FF92FD
:1009F0000F931F93CF93DF93EC01042F8E810E94FE
:100A0000CE0160E088850E94CE01FC80ED8018E078
:100A1000602F661F6627661F8E2D0E94CE01000F75
:100A200061E08F2D0E94CE0160E08F2D0E94CE01EB
:100A3000115071F761E08885DF91CF911F910F917F
:100A4000FF90EF900C94CE01CF93DF93C8E1D2E0FA
:100A50001C8690E06B8529E3629F612D11246695C9
:100A600070E06F5F7F4F0E947E0D8D8740E860E0F1
:100A7000CE010E94F6044D85406460E0CE01DF9116
:100A8000CF910C94F604CF93DF9380E00E9424056D
:100A9000D0E0C0E08091230286958695869590915E
:100AA0002202899FC0011124C817D90740F440E0F1
:100AB00061E088E192E00E94F6042196EBCF80E0AD
:100AC000DF91CF910C942405CF92DF92EF92FF92A9
:100AD0000F931F93CF93DF9300D000D01F92CDB719
:100AE000DEB767FD66C07C01862F90E0603208F4B7
:100AF0004FC0809725E0289FB001299F700D1124D9
:100B000068597F4F45E050E0CE0101960E94390BB5
:100B10008E010F5F1F4F680185E0C80ED11CF801E0
:100B200041918F0161E0C7010E94F6040C151D057B
:100B3000B1F740E061E0C7010E94F604F701848547
:100B400090E00696628570E00E947E0D8487892B76
:100B500079F4858590E00196638529E3629F612D94
:100B60001124669570E06F5F7F4F0E947E0D858730
:100B700081E090E00F900F900F900F900F90DF9119
:100B8000CF911F910F91FF90EF90DF90CF9008953C
:100B9000FC013796EE0FFF1FEE0DFF1D0081118146
:100BA0000115110509F0B7CF45E050E068E670E0A7
:100BB000ABCF90E080E0DECF1F920F920FB60F9286
:100BC00011242F933F938F939F93AF93BF93809163
:100BD000730190917401A0917501B09176013091EB
:100BE000720123E0230F2D3758F50196A11DB11D89
:100BF000209372018093730190937401A093750107
:100C0000B09376018091770190917801A09179015C
:100C1000B0917A010196A11DB11D80937701909347
:100C20007801A0937901B0937A01BF91AF919F9120
:100C30008F913F912F910F900FBE0F901F9018959D
:100C400026E8230F0296A11DB11DD2CF1F920F924D
:100C50000FB60F9211242F933F934F935F936F938F
:100C60007F938F939F93AF93BF93EF93FF938BE704
:100C700091E00E941503FF91EF91BF91AF919F9179
:100C80008F917F916F915F914F913F912F910F9035
:100C90000FBE0F901F9018951F920F920FB60F92D4
:100CA00011242F938F939F93EF93FF93E0918B01E8
:100CB000F0918C018081E0919101F091920182FD8F
:100CC0001BC09081809194018F5F8F73209195015B
:100CD000821741F0E0919401F0E0E558FE4F958FC6
:100CE00080939401FF91EF919F918F912F910F909D
:100CF0000FBE0F901F9018958081F4CFEBE7F1E0C5
:100D00001382128288EE93E0A0E0B0E084839583A2
:100D1000A683B78384E091E09183808385EC90E0A3
:100D20009587848784EC90E09787868780EC90E0B5
:100D3000918B808B81EC90E0938B828B82EC90E0A6
:100D4000958B848B86EC90E0978B868B118E128E20
:100D5000138E148EE8E1F2E01382128286E191E0B4
:100D60009183808383E0848384E0858385E0868328
:100D700086E0878387E080870895789484B58260D1
:100D800084BD84B5816084BD85B5826085BD85B52F
:100D9000816085BD80916E00816080936E001092AD
:100DA0008100809181008260809381008091810028
:100DB00081608093810080918000816080938000B9
:100DC0008091B10084608093B1008091B000816017
:100DD0008093B00080917A00846080937A00809143
:100DE0007A00826080937A0080917A00816080939B
:100DF0007A0080917A00806880937A001092C10016
:100E000084E58093220280E38093230210922102E2
:100E10001092240210922502E6E2F2E080E4DF0163
:100E20001D928A95E9F761E080911C020E94FC0105
:100E300061E080911D020E94FC0161E080911E0230
:100E40000E94FC0161E080911F020E94FC0161E0B0
:100E5000809120020E94FC0161E080911F020E94AB
:100E6000CE0161E0809120020E94CE0160E080917D
:100E70001F020E94CE0164E670E080E090E00E94D4
:100E8000640261E080911F020E94CE0141E260E0B5
:100E900088E192E00E94F60443E160E088E192E09C
:100EA0000E94F6048091210242EC813039F440EE38
:100EB00060E088E192E00E94F60445E060E088E1AD
:100EC00092E00E94F60440E260E088E192E00E9435
:100ED000F60449E060E088E192E00E94F6040E9496
:100EE000430548E060E088E192E00E94F6044CE0AF
:100EF00060E088E192E00E94F60464E670E080E041
:100F000090E00E94640240E860E088E192E00E9484
:100F1000F60440E460E088E192E00E94F604E0918B
:100F20008B01F0918C0182E08083E0918701F09148
:100F300088011082E0918901F0918A018FEC808311
:100F400010929301E0918F01F091900186E08083EF
:100F5000E0918D01F0918E01808180618083E0912C
:100F60008D01F0918E01808188608083E0918D01F8
:100F7000F0918E01808180688083E0918D01F091F5
:100F80008E0180818F7D808360E08EE00E94FC0175
:100F900060E08FE00E94FC0160E080E10E94FC01C3
:100FA00060E081E10E94FC0161E088E00E94FC01B8
:100FB00061E089E00E94FC0161E08AE00E94FC019E
:100FC00061E08BE00E94FC0180E0E82E80E0F82EDA
:100FD000772473948DE00E94A501892B09F4A8C29F
:100FE000709271017092700180917101882309F4EF
:100FF000A9C210926C0110926D0110926E011092B4
:101000006F011092640110926501109266011092B6
:10101000670110925C0110925D0110925E011092C6
:101020005F011092540110925501109256011092D6
:101030005701C4E6D0E08EE00E942D025C018FE0F3
:101040000E942D024C0180E10E942D026C0181E181
:101050000E942D028C01B501BB0C880B990B0E94DC
:10106000570C1B012C0120916C0130916D014091B6
:101070006E0150916F010E94070D181644F42092E2
:101080006C0130926D0140926E0150926F01B4017B
:10109000990C880B990B0E94570C4B015C01209115
:1010A00064013091650140916601509167010E9491
:1010B000070D181644F48092640190926501A09285
:1010C0006601B0926701B601DD0C880B990B0E9496
:1010D000570C4B015C0120915C0130915D01409106
:1010E0005E0150915F010E94070D181644F4809232
:1010F0005C0190925D01A0925E01B0925F01B80127
:10110000110F880B990B0E94570C4B015C01209129
:1011100054013091550140915601509157010E9460
:10112000070D181644F48092540190925501A09234
:101130005601B092570160E070E0CB010E9464025A
:10114000219709F078CF20E030E84FEF53E4609129
:101150006C0170916D0180916E0190916F010E9400
:10116000420B20E030E040E452E40E940C0D20E00D
:1011700030EC4FE754E40E94B40B23EF34E045EB2E
:101180005FE30E94B40B60936801709369018093E0
:101190006A0190936B0120E030E84FEF53E46091D7
:1011A00064017091650180916601909167010E94D0
:1011B000420B20E030E040E452E40E940C0D20E0BD
:1011C00030EC4FE754E40E94B40B23EF34E045EBDE
:1011D0005FE30E94B40B60936001709361018093A0
:1011E00062019093630120E030E84FEF53E4609197
:1011F0005C0170915D0180915E0190915F010E94A0
:10120000420B20E030E040E452E40E940C0D20E06C
:1012100030EC4FE754E40E94B40B23EF34E045EB8D
:101220005FE30E94B40B609358017093590180935F
:101230005A0190935B0120E030E84FEF53E4609156
:1012400054017091550180915601909157010E946F
:10125000420B20E030E040E452E40E940C0D20E01C
:1012600030EC4FE754E40E94B40B23EF34E045EB3D
:101270005FE30E94B40B609350017093510180931F
:101280005201909353018090680190906901A09061
:101290006A01B0906B0120E030E040EA51E4C50102
:1012A000B4010E94070D87FF0BC020E030E040EA48
:1012B00051ECC501B4010E94AF0B60E018160CF0B0
:1012C00061E08BE00E94CE0180906001909061010E
:1012D000A0906201B090630120E030E040EA51E468
:1012E000C501B4010E94070D87FF0BC020E030E06C
:1012F00040EA51ECC501B4010E94AF0B60E0181642
:101300000CF061E08AE00E94CE018090580190903C
:101310005901A0905A01B0905B0120E030E040EA12
:1013200051E4C501B4010E94070D87FF0BC020E006
:1013300030E040EA51ECC501B4010E94AF0B60E01F
:1013400018160CF061E089E00E94CE0180905001F7
:1013500090905101A0905201B090530120E030E0F4
:1013600040EA51E4C501B4010E94070D87FF0BC09C
:1013700020E030E040EA51ECC501B4010E94AF0B1F
:1013800060E018160CF061E088E00E94CE0180E079
:101390000E9424058AE291E00E94030482E00E94F8
:1013A000240587E391E00E94030440916801509175
:1013B000690160916A0170916B0122E088E192E01D
:1013C0000E94080480917101882309F446C18BE3CF
:1013D00091E00E94030483E00E94240584E491E0EC
:1013E0000E9403044091600150916101609162018B
:1013F0007091630122E088E192E00E9408048091EC
:101400007101882309F42CC18BE391E00E9403044D
:1014100084E00E94240588E491E00E940304409146
:1014200058015091590160915A0170915B0122E07D
:1014300088E192E00E94080480917101882309F4F8
:1014400012C18BE391E00E94030485E00E94240511
:101450008CE491E00E9403044091500150915101AD
:10146000609152017091530122E088E192E00E9464
:10147000080480917101882309F4F8C08BE391E09E
:101480000E9403048CE00E94A501892B09F444C04A
:10149000409168015091690160916A0170916B01FE
:1014A00022E08BE791E00E9408048BE791E00E9424
:1014B00084034091600150916101609162017091DB
:1014C000630122E08BE791E00E9408048BE791E042
:1014D0000E948403409158015091590160915A0132
:1014E00070915B0122E08BE791E00E9408048BE79A
:1014F00091E00E948403409150015091510160910C
:1015000052017091530122E08BE791E00E940804A0
:101510008BE791E00E948403E114F10409F45ACDB1
:101520000E940103882309F455CD0E94000052CD8A
:10153000109271018091700181110E9443051092F7
:10154000700152CD8EE00E942D02BC01990F880BD4
:10155000990B0E94570C9B01AC0160E070E88FEF83
:1015600093E40E94420B20E030E040E452E40E9409
:101570000C0D20E030EC4FE754E40E94B40B609374
:1015800068017093690180936A0190936B018FE009
:101590000E942D02BC01990F880B990B0E94570CD9
:1015A0009B01AC0160E070E88FEF93E40E94420B76
:1015B00020E030E040E452E40E940C0D20E030ECEA
:1015C0004FE754E40E94B40B609360017093610193
:1015D000809362019093630180E10E942D02BC011F
:1015E000990F880B990B0E94570C9B01AC0160E08E
:1015F00070E88FEF93E40E94420B20E030E040E47B
:1016000052E40E940C0D20E030EC4FE754E40E94BD
:10161000B40B609358017093590180935A019093D1
:101620005B0181E10E942D02BC01990F880B990B8F
:101630000E94570C9B01AC0160E070E88FEF93E4CF
:101640000E94420B20E030E040E452E40E940C0D86
:1016500020E030EC4FE754E40CCE81E491E0B9CEC9
:1016600081E491E0D3CE81E491E0EDCE81E491E09C
:1016700007CFFB01DC0102C005900D9241505040A4
:10168000D8F708955058BB27AA270E945A0B0C94EC
:10169000CD0C0E94BF0C38F00E94C60C20F039F42B
:1016A0009F3F19F426F40C94BC0C0EF4E095E7FB74
:1016B0000C94B60CE92F0E94DE0C58F3BA1762079F
:1016C00073078407950720F079F4A6F50C94000DB4
:1016D0000EF4E0950B2EBA2FA02D0B01B90190014D
:1016E0000C01CA01A0011124FF27591B99F0593F91
:1016F00050F4503E68F11A16F040A22F232F342FD9
:101700004427585FF3CF469537952795A795F04026
:101710005395C9F77EF41F16BA0B620B730B840B3B
:10172000BAF09150A1F0FF0FBB1F661F771F881FF3
:10173000C2F70EC0BA0F621F731F841F48F487954B
:1017400077956795B795F7959E3F08F0B0CF93953D
:10175000880F08F09927EE0F9795879508950E94B6
:10176000920C08F481E008950E94C80B0C94CD0CF3
:101770000E94C60C58F00E94BF0C40F029F45F3F55
:1017800029F00C94B60C51110C94010D0C94BC0C66
:101790000E94DE0C68F39923B1F3552391F3951B56
:1017A000550BBB27AA2762177307840738F09F5F82
:1017B0005F4F220F331F441FAA1FA9F335D00E2EEF
:1017C0003AF0E0E832D091505040E695001CCAF75C
:1017D0002BD0FE2F29D0660F771F881FBB1F26171F
:1017E00037074807AB07B0E809F0BB0B802DBF01F6
:1017F000FF2793585F4F3AF09E3F510578F00C94C5
:10180000B60C0C94010D5F3FE4F3983ED4F386953B
:1018100077956795B795F7959F5FC9F7880F911DE5
:101820009695879597F90895E1E0660F771F881FD1
:10183000BB1F621773078407BA0720F0621B730B84
:10184000840BBA0BEE1F88F7E09508950E94E60C12
:1018500088F09F5798F0B92F9927B751B0F0E1F071
:10186000660F771F881F991F1AF0BA95C9F714C021
:10187000B13091F00E94000DB1E008950C94000D7C
:10188000672F782F8827B85F39F0B93FCCF386955A
:1018900077956795B395D9F73EF4909580957095B7
:1018A00061957F4F8F4F9F4F0895E89409C097FB34
:1018B0003EF490958095709561957F4F8F4F9F4F27
:1018C0009923A9F0F92F96E9BB279395F69587956B
:1018D00077956795B795F111F8CFFAF4BB0F11F42E
:1018E00060FF1BC06F5F7F4F8F4F9F4F16C08823D5
:1018F00011F096E911C0772321F09EE8872F762F0B
:1019000005C0662371F096E8862F70E060E02AF04B
:101910009A95660F771F881FDAF7880F9695879537
:1019200097F90895990F0008550FAA0BE0E8FEEF0C
:1019300016161706E807F907C0F012161306E40793
:10194000F50798F0621B730B840B950B39F40A268C
:1019500061F0232B242B252B21F408950A2609F46A
:10196000A140A6958FEF811D811D089597F99F676E
:1019700080E870E060E008959FEF80EC0895002417
:101980000A941616170618060906089500240A94E4
:1019900012161306140605060895092E0394000C6A
:1019A00011F4882352F0BB0F40F4BF2B11F460FFF9
:1019B00004C06F5F7F4F8F4F9F4F089557FD905822
:1019C000440F551F59F05F3F71F04795880F97FB03
:1019D000991F61F09F3F79F08795089512161306BD
:1019E0001406551FF2CF4695F1DF08C016161706EC
:1019F0001806991FF1CF8695710561050894089521
:101A0000E894BB2766277727CB0197F908950E94B2
:101A1000920C08F48FEF08950E941F0D0C94CD0CCA
:101A20000E94BF0C38F00E94C60C20F0952311F0E4
:101A30000C94B60C0C94BC0C11240C94010D0E9457
:101A4000DE0C70F3959FC1F3950F50E0551F629F18
:101A5000F001729FBB27F00DB11D639FAA27F00D07
:101A6000B11DAA1F649F6627B00DA11D661F829F2E
:101A70002227B00DA11D621F739FB00DA11D621F13
:101A8000839FA00D611D221F749F3327A00D611D30
:101A9000231F849F600D211D822F762F6A2F112412
:101AA0009F5750409AF0F1F088234AF0EE0FFF1F45
:101AB000BB1F661F771F881F91505040A9F79E3F9C
:101AC000510580F00C94B60C0C94010D5F3FE4F3CB
:101AD000983ED4F3869577956795B795F795E795F2
:101AE0009F5FC1F7FE2B880F911D9695879597F9FB
:101AF00008950E94920C880B990B089597FB072E6E
:101B000016F4009407D077FD09D00E94B40D07FCAD
:101B100005D03EF4909581959F4F089570956195FD
:101B20007F4F0895A1E21A2EAA1BBB1BFD010DC019
:101B3000AA1FBB1FEE1FFF1FA217B307E407F5077D
:101B400020F0A21BB30BE40BF50B661F771F881F59
:101B5000991F1A9469F760957095809590959B01EF
:101B6000AC01BD01CF010895AA1BBB1B51E107C009
:101B7000AA1FBB1FA617B70710F0A61BB70B881F1D
:101B8000991F5A95A9F780959095BC01CD010895AC
:101B9000EE0FFF1F0590F491E02D0994F894FFCF0C
:101BA0000000000037039702C4028403F502D30249
:101BB000E7020000000064059702A503A4036E611C
:101BC0006E00696E66006F7666002020564F4C549A
:101BD000494D4554524F00563120002056726D73C6
:101BE0000020560056322000563320005634200084
:107E0000112484B714BE81FFF0D085E080938100F7
:107E100082E08093C00088E18093C10086E0809377
:107E2000C20080E18093C4008EE0C9D0259A86E02C
:107E300020E33CEF91E0309385002093840096BBD3
:107E4000B09BFECF1D9AA8958150A9F7CC24DD24C4
:107E500088248394B5E0AB2EA1E19A2EF3E0BF2EE7
:107E6000A2D0813461F49FD0082FAFD0023811F036
:107E7000013811F484E001C083E08DD089C08234E0
:107E800011F484E103C0853419F485E0A6D080C0E4
:107E9000853579F488D0E82EFF2485D0082F10E0AE
:107EA000102F00270E291F29000F111F8ED06801E7
:107EB0006FC0863521F484E090D080E0DECF843638
:107EC00009F040C070D06FD0082F6DD080E0C81688
:107ED00080E7D80618F4F601B7BEE895C0E0D1E017
:107EE00062D089930C17E1F7F0E0CF16F0E7DF06D8
:107EF00018F0F601B7BEE89568D007B600FCFDCFD4
:107F0000A601A0E0B1E02C9130E011968C91119780
:107F100090E0982F8827822B932B1296FA010C0160
:107F200087BEE89511244E5F5F4FF1E0A038BF0790
:107F300051F7F601A7BEE89507B600FCFDCF97BE46
:107F4000E89526C08437B1F42ED02DD0F82E2BD052
:107F50003CD0F601EF2C8F010F5F1F4F84911BD097
:107F6000EA94F801C1F70894C11CD11CFA94CF0C13
:107F7000D11C0EC0853739F428D08EE10CD085E9AC
:107F80000AD08FE07ACF813511F488E018D01DD067
:107F900080E101D065CF982F8091C00085FFFCCF94
:107FA0009093C60008958091C00087FFFCCF809118
:107FB000C00084FD01C0A8958091C6000895E0E648
:107FC000F0E098E1908380830895EDDF803219F02E
:107FD00088E0F5DFFFCF84E1DECF1F93182FE3DFCA
:107FE0001150E9F7F2DF1F91089580E0E8DFEE27F6
:047FF000FF270994CA
:027FFE00040479
:00000001FF
