:100000000C9452010C947A010C947A010C947A01AC
:100010000C947A010C947A010C947A010C947A0174
:100020000C947A010C947A010C947A010C947A0164
:100030000C947A010C947A010C947A010C947A0154
:100040000C94DC050C947A010C944C060C94260656
:100050000C947A010C947A010C947A010C947A0134
:100060000C947A010C947A01000000000000005FFB
:1000700000000007000700147F147F14242A7F2A41
:10008000122313086462364955225000050300000C
:10009000001C2241000041221C0014083E081408E4
:1000A000083E0808005030000008080808080060F2
:1000B00060000020100804023E5149453E00427F86
:1000C000400042615149462141454B311814127F8D
:1000D0001027454545393C4A494930017109050316
:1000E0003649494936064949291E0036360000007E
:1000F0005636000008142241001414141414004150
:100100002214080201510906324979413E7E11113B
:10011000117E7F494949363E414141227F4141227A
:100120001C7F494949417F090909013E4149497AF2
:100130007F0808087F00417F41002040413F017F48
:10014000081422417F404040407F020C027F7F0420
:1001500008107F3E4141413E7F090909063E415159
:10016000215E7F09192946464949493101017F012C
:10017000013F4040403F1F2040201F3F4038403F4C
:100180006314081463070870080761514945430068
:100190007F41410002040810200041417F00040219
:1001A0000102044040404040000102040020545439
:1001B00054787F48444438384444442038444448C0
:1001C0007F3854545418087E0901020C5252523E92
:1001D0007F0804047800447D40002040443D007FB7
:1001E0001028440000417F40007C041804787C08FB
:1001F00004047838444444387C1414140808141453
:10020000187C7C080404084854545420043F44409B
:10021000203C4040207C1C2040201C3C4030403C86
:1002200044281028440C5050503C4464544C440022
:100230000836410000007F00000041360800100829
:100240000810080000000000000000002400270043
:100250002A0000000000250028002B0000000000FC
:1002600023002600290004040404040404040202F8
:100270000202020203030303030301020408102025
:100280004080010204081020010204081020000030
:100290000008000201000003040700000000000045
:1002A00000007E0611241FBECFEFD8E0DEBFCDBF19
:1002B00011E0A0E0B1E0E6E3FCE102C005900D92A0
:1002C000A035B107D9F722E0A0E5B1E001C01D9249
:1002D000A636B207E1F711E0C2E5D1E004C02197EC
:1002E000FE010E94130EC135D107C9F70E94BD0659
:1002F0000C94190E0C940000833081F028F48130A6
:1003000099F08230A9F008958730A9F08830C9F0BB
:100310008430B1F4809180008F7D03C08091800093
:100320008F7780938000089584B58F7784BD08957A
:1003300084B58F7DFBCF8091B0008F778093B00024
:1003400008958091B0008F7DF9CFCF93DF93282F50
:1003500030E0F901E257FD4F8491F901E658FD4F75
:10036000D491F901EA59FD4FC491CC23A1F0811138
:100370000E947C01EC2FF0E0EE0FFF1FE45AFD4FCE
:10038000A591B491EC91ED2381E090E009F480E037
:10039000DF91CF91089580E090E0FACF1F93CF9343
:1003A000DF93282F30E0F901E257FD4F8491F901E6
:1003B000E658FD4FD491F901EA59FD4FC491CC2381
:1003C000A9F0162F81110E947C01EC2FF0E0EE0FB6
:1003D000FF1FEE5AFD4FA591B4918FB7F894EC91A1
:1003E000111108C0D095DE23DC938FBFDF91CF9130
:1003F0001F910895DE2BF8CFCF93DF9390E0FC019F
:10040000E658FD4F24918A599D4FFC018491882321
:10041000D1F090E0880F991FFC01E85BFD4FA5919A
:10042000B491FC01EE5AFD4FC591D49161110EC0FB
:100430009FB7F8948C91E22FE0958E238C932881BE
:10044000E223E8839FBFDF91CF9108958FB7F8949F
:10045000EC91E22BEC938FBFF6CF8E5080648093AB
:100460007C0080917A00806480937A0080917A0089
:1004700086FDFCCF809178009091790008953FB778
:10048000F8948091770190917801A0917901B091D1
:100490007A0126B5A89B05C02F3F19F00196A11D32
:1004A000B11D3FBFBA2FA92F982F8827BC01CD01BE
:1004B000620F711D811D911D42E0660F771F881F1D
:1004C000991F4A95D1F708958F929F92AF92BF924C
:1004D000CF92DF92EF92FF926B017C010E943F026C
:1004E0004B015C01C114D104E104F104B9F00E9494
:1004F0003F02681979098A099B09683E73408105A2
:10050000910580F321E0C21AD108E108F10888EED4
:10051000880E83E0981EA11CB11CE4CFFF90EF90E1
:10052000DF90CF90BF90AF909F908F900895AF9243
:10053000BF92CF92DF92EF92FF920F931F93CF93D0
:10054000DF936C017B018B01040F151FEB015E0132
:10055000AE18BF08C017D10759F06991D601ED91C7
:10056000FC910190F081E02DC6010995892B79F766
:10057000C501DF91CF911F910F91FF90EF90DF9018
:10058000CF90BF90AF900895FC01538D448D252FDF
:1005900030E0842F90E0821B930B541710F0CF961D
:1005A000089501970895FC01918D828D981761F04F
:1005B000A28DAE0FBF2FB11D5D968C91928D9F5F66
:1005C0009F73928F90E008958FEF9FEF0895FC0145
:1005D000918D828D981731F0828DE80FF11D858DF8
:1005E00090E008958FEF9FEF0895FC01918D228D8B
:1005F000892F90E0805C9F4F821B91098F73992710
:1006000008958BE791E00E94F50221E0892B09F41F
:1006100020E0822F089580E090E0892B29F00E944D
:10062000010381110C9400000895FC01A48DA80F12
:10063000B92FB11DA35ABF4F2C91848D90E0019624
:100640008F739927848FA689B7892C93A089B18944
:100650008C91837080648C93938D848D981306C0E5
:100660000288F389E02D80818F7D80830895EF9249
:10067000FF920F931F93CF93DF93EC0181E0888F5C
:100680009B8D8C8D98131AC0E889F989808185FF2C
:1006900015C09FB7F894EE89FF896083E889F989CE
:1006A00080818370806480839FBF81E090E0DF91D0
:1006B000CF911F910F91FF90EF900895F62E0B8D23
:1006C00010E00F5F1F4F0F731127E02E8C8D8E11DE
:1006D0000CC00FB607FCFACFE889F989808185FF45
:1006E000F5CFCE010E941503F1CFEB8DEC0FFD2F5E
:1006F000F11DE35AFF4FF0829FB7F8940B8FEA8900
:10070000FB8980818062CFCFCF93DF93EC01888D0E
:100710008823B9F0AA89BB89E889F9898C9185FD7C
:1007200003C0808186FD0DC00FB607FCF7CF8C910A
:1007300085FFF2CF808185FFEDCFCE010E941503AA
:10074000E9CFDF91CF910895089590E080E008957A
:10075000EF92FF920F931F93CF93DF93EC01042F3F
:100760008E810E94CE0160E088850E94CE01FC80CF
:10077000ED8018E0602F661F6627661F8E2D0E9491
:10078000CE01000F61E08F2D0E94CE0160E08F2D21
:100790000E94CE01115071F761E08885DF91CF9101
:1007A0001F910F91FF90EF900C94CE01CF93DF93A8
:1007B000C8E1D2E01C8690E06B8529E3629F612D41
:1007C0001124669570E06F5F7F4F0E94C90D8D8781
:1007D00040E860E0CE010E94A8034D85406460E0DF
:1007E000CE01DF91CF910C94A803CF93DF9380E0EB
:1007F0000E94D603D0E0C0E08091230286958695C2
:10080000869590912202899FC0011124C817D907AB
:1008100040F440E061E088E192E00E94A803219664
:10082000EBCF80E0DF91CF910C94D603FB010190D8
:100830000020E9F73197AF01461B570BDC01ED9122
:10084000FC910280F381E02D09948F929F92AF92E8
:10085000BF92EF92FF920F931F93CF93DF93CDB789
:10086000DEB7A1970FB6F894DEBF0FBECDBF7C01F7
:10087000FA01CB0119A2223008F42AE08E010F5DA3
:100880001F4F822E912CB12CA12CBF01A5019401E8
:100890000E94DD0DF901CA016A300CF5605DD801D6
:1008A0006E938D01232B242B252B79F790E080E08C
:1008B000109721F0BD01C7010E941604A1960FB642
:1008C000F894DEBF0FBECDBFDF91CF911F910F9186
:1008D000FF90EF90BF90AF909F908F900895695CCC
:1008E000DECFBC0188E192E00C9416042F923F9277
:1008F0004F925F926F927F928F929F92AF92BF9230
:10090000CF92DF92EF92FF921F93CF93DF93EC0190
:100910006A017B01722EAB019601CB01B6010E94E8
:10092000C40D6EE171E0811126C046015701E894C3
:10093000B7F82FEF3FEF4FE75FE7C501B4010E9423
:10094000C40D81110CC02FEF3FEF4FE75FE7C501EA
:10095000B4010E94FA0B62E271E0181664F02FEF06
:100960003FEF4FE75FE4C701B6010E94520D181632
:10097000B4F466E271E0CE01DF91CF911F91FF9058
:10098000EF90DF90CF90BF90AF909F908F907F902F
:100990006F905F904F903F902F900C9416042FEF24
:1009A0003FEF4FE75FECC701B6010E94FA0B87FDEE
:1009B000E0CF20E030E0A901C701B6010E94FA0BA8
:1009C000312C212C87FF0DC0E881F9810190F08145
:1009D000E02D6DE2CE0109951C01F7FAF094F7F8CD
:1009E000F09410E060E070E080E09FE3711641F069
:1009F00020E030E040E251E40E94FF0B1F5FF6CFA1
:100A0000A70196010E948E0B2B013C010E94710CE4
:100A10004B015C012AE0BC01A401CE010E94250427
:100A20007C01E20CF31C1123E1F1C501B4010E9429
:100A3000A00C9B01AC01C301B2010E948D0B4B01C4
:100A40005C01E881F9810190F081E02D6EE2CE0138
:100A50000995E80EF91E115020F120E030E040E247
:100A600051E4C501B4010E94570D2B013C010E94C5
:100A7000710C4B01B12CA12C2AE0B501A401CE01CF
:100A80000E942504E80EF91EC501B4010E94A00CC5
:100A90009B01AC01C301B2010E948D0B4B015C01B3
:100AA000DACFC701DF91CF911F91FF90EF90DF90D8
:100AB000CF90BF90AF909F908F907F906F905F90FE
:100AC0004F903F902F900895CF92DF92EF92FF9238
:100AD0000F931F93CF93DF9300D000D01F92CDB719
:100AE000DEB767FD66C07C01862F90E0603208F4B7
:100AF0004FC0809725E0289FB001299F700D1124D9
:100B000068597F4F45E050E0CE0101960E94840B6A
:100B10008E010F5F1F4F680185E0C80ED11CF801E0
:100B200041918F0161E0C7010E94A8030C151D05CA
:100B3000B1F740E061E0C7010E94A803F701848596
:100B400090E00696628570E00E94C90D8487892B2B
:100B500079F4858590E00196638529E3629F612D94
:100B60001124669570E06F5F7F4F0E94C90D8587E5
:100B700081E090E00F900F900F900F900F90DF9119
:100B8000CF911F910F91FF90EF90DF90CF9008953C
:100B9000FC013796EE0FFF1FEE0DFF1D0081118146
:100BA0000115110509F0B7CF45E050E068E670E0A7
:100BB000ABCF90E080E0DECF1F920F920FB60F9286
:100BC00011242F933F938F939F93AF93BF93809163
:100BD000730190917401A0917501B09176013091EB
:100BE000720123E0230F2D3758F50196A11DB11D89
:100BF000209372018093730190937401A093750107
:100C0000B09376018091770190917801A09179015C
:100C1000B0917A010196A11DB11D80937701909347
:100C20007801A0937901B0937A01BF91AF919F9120
:100C30008F913F912F910F900FBE0F901F9018959D
:100C400026E8230F0296A11DB11DD2CF1F920F924D
:100C50000FB60F9211242F933F934F935F936F938F
:100C60007F938F939F93AF93BF93EF93FF938BE704
:100C700091E00E941503FF91EF91BF91AF919F9179
:100C80008F917F916F915F914F913F912F910F9035
:100C90000FBE0F901F9018951F920F920FB60F92D4
:100CA00011242F938F939F93EF93FF93E0918B01E8
:100CB000F0918C018081E0919101F091920182FD8F
:100CC0001BC09081809194018F5F8F73209195015B
:100CD000821741F0E0919401F0E0E558FE4F958FC6
:100CE00080939401FF91EF919F918F912F910F909D
:100CF0000FBE0F901F9018958081F4CFEBE7F1E0C5
:100D00001382128288EE93E0A0E0B0E084839583A2
:100D1000A683B78384E091E09183808385EC90E0A3
:100D20009587848784EC90E09787868780EC90E0B5
:100D3000918B808B81EC90E0938B828B82EC90E0A6
:100D4000958B848B86EC90E0978B868B118E128E20
:100D5000138E148EE8E1F2E01382128286E191E0B4
:100D60009183808383E0848384E0858385E0868328
:100D700086E0878387E080870895CF93DF9300D054
:100D800000D0CDB7DEB7789484B5826084BD84B5D9
:100D9000816084BD85B5826085BD85B5816085BD76
:100DA00080916E00816080936E001092810080912E
:100DB00081008260809381008091810081608093B6
:100DC0008100809180008160809380008091B100DB
:100DD00084608093B1008091B00081608093B00006
:100DE00080917A00846080937A0080917A0082609A
:100DF00080937A0080917A00816080937A0080915C
:100E00007A00806880937A001092C10084E5809314
:100E1000220280E380932302109221021092240286
:100E200010922502E6E2F2E080E4DF011D928A954D
:100E3000E9F761E080911C020E94FC0161E0809171
:100E40001D020E94FC0161E080911E020E94FC01D3
:100E500061E080911F020E94FC0161E0809120020C
:100E60000E94FC0161E080911F020E94CE0161E0BE
:100E7000809120020E94CE0160E080911F020E94BA
:100E8000CE0164E670E080E090E00E94640261E0E0
:100E900080911F020E94CE0141E260E088E192E071
:100EA0000E94A80343E160E088E192E00E94A80369
:100EB0008091210242EC813039F440EE60E088E11B
:100EC00092E00E94A80345E060E088E192E00E9481
:100ED000A80340E260E088E192E00E94A80349E0B4
:100EE00060E088E192E00E94A8030E94F50348E0D8
:100EF00060E088E192E00E94A8034CE060E088E1B5
:100F000092E00E94A80364E670E080E090E00E9416
:100F1000640240E860E088E192E00E94A80340E4B7
:100F200060E088E192E00E94A803E0918B01F091DB
:100F30008C0182E08083E0918701F091880110822A
:100F4000E0918901F0918A018FEC808310929301E6
:100F5000E0918F01F091900186E08083E0918D0116
:100F6000F0918E01808180618083E0918D01F0910C
:100F70008E01808188608083E0918D01F0918E01E7
:100F8000808180688083E0918D01F0918E01808165
:100F90008F7D808360E08EE00E94FC0160E08FE046
:100FA0000E94FC0160E080E10E94FC0160E081E1C0
:100FB0000E94FC0161E088E00E94FC0161E089E0A0
:100FC0000E94FC0161E08AE00E94FC0161E08BE08C
:100FD0000E94FC01332433948DE00E94A501892BEB
:100FE00009F478C2309271013092700180917101E0
:100FF000882309F479C210926C0110926D0110924D
:101000006E0110926F0110926401109265011092AE
:1010100066011092670110925C0110925D011092BE
:101020005E0110925F0110925401109255011092CE
:1010300056011092570104E610E08EE00E942D0246
:101040005C018FE00E942D024C0180E10E942D0284
:101050006C0181E10E942D027C01B501BB0C880B63
:10106000990B0E94A20C2B013C0120916C01309144
:101070006D0140916E0150916F010E94520D181642
:1010800044F440926C0150926D0160926E01709236
:101090006F01B401990C880B990B0E94A20C4B01B3
:1010A0005C0120916401309165014091660150918D
:1010B00067010E94520D181644F4809264019092C8
:1010C0006501A0926601B0926701B601DD0C880B44
:1010D000990B0E94A20C4B015C0120915C013091A4
:1010E0005D0140915E0150915F010E94520D181602
:1010F00044F480925C0190925D01A0925E01B092F6
:101100005F01B701FF0C880B990B0E94A20C6B01C9
:101110007C0120915401309155014091560150912C
:1011200057010E94520D181644F4C0925401D092F7
:101130005501E0925601F092570160E070E0CB015A
:101140000E9464020150110909F077CF20E030E8D5
:101150004FEF53E460916C0170916D0180916E01CD
:1011600090916F010E948D0B20E030E040E452E44A
:101170000E94570D20E030EC4FE754E40E94FF0B33
:1011800023EF34E045EB5FE30E94FF0B2B013C01B2
:10119000409268015092690160926A0170926B01FD
:1011A00020E030E84FEF53E46091640170916501F5
:1011B00080916601909167010E948D0B20E030E0E4
:1011C00040E452E40E94570D20E030EC4FE754E435
:1011D0000E94FF0B23EF34E045EB5FE30E94FF0B1F
:1011E0004B015C018092600190926101A0926201CA
:1011F000B092630120E030E84FEF53E460915C016E
:1012000070915D0180915E0190915F010E948D0B54
:1012100020E030E040E452E40E94570D20E030EC42
:101220004FE754E40E94FF0B23EF34E045EB5FE30C
:101230000E94FF0B6B017C01C0925801D0925901B2
:10124000E0925A01F0925B0120E030E84FEF53E466
:101250006091540170915501809156019091570110
:101260000E948D0B20E030E040E452E40E94570DD4
:1012700020E030EC4FE754E40E94FF0B23EF34E012
:1012800045EB5FE30E94FF0B69837A838B839C832A
:1012900060935001709351018093520190935301D8
:1012A00020E030E048E551E4C301B2010E94520D54
:1012B00061E087FD60E08BE00E94CE0120E030E03D
:1012C00048E551E4C501B4010E94520D61E087FD7B
:1012D00060E08AE00E94CE0120E030E048E551E481
:1012E000C701B6010E94520D61E087FD60E089E010
:1012F0000E94CE0120E030E048E551E469817A8126
:101300008B819C810E94520D87FDF0C161E088E0D5
:101310000E94CE0180E00E94D6038AE291E00E9402
:10132000710482E00E94D60387E391E00E94710479
:10133000409168015091690160916A0170916B015F
:1013400022E088E192E00E94760480917101882376
:1013500009F4CEC18BE391E00E94710483E00E9406
:10136000D60384E491E00E947104409160015091A1
:101370006101609162017091630122E088E192E075
:101380000E94760480917101882309F4B4C18BE333
:1013900091E00E94710484E00E94D60388E491E009
:1013A0000E947104409158015091590160915A0175
:1013B00070915B0122E088E192E00E9476048091C6
:1013C0007101882309F49AC18BE391E00E947104B2
:1013D00085E00E94D6038CE491E00E947104409164
:1013E000500150915101609152017091530122E0DE
:1013F00088E192E00E94760480917101882309F4CB
:1014000080C18BE391E00E9471048CE00E94A501F1
:10141000892B09F452C04091680150916901609193
:101420006A0170916B0122E08BE791E00E947604E3
:101430008BE791E00E94840340916001509161012B
:10144000609162017091630122E08BE791E00E945C
:1014500076048BE791E00E948403409158015091FB
:10146000590160915A0170915B0122E08BE791E094
:101470000E9476048BE791E00E9484034091500122
:1014800050915101609152017091530122E08BE71C
:1014900091E00E9476048BE791E00E9484034091E2
:1014A000710150E070E060E02AE08BE791E00E947B
:1014B00025048BE791E00E94840380E090E0892B73
:1014C00009F48ACD0E940103882309F485CD0E9486
:1014D000000082CD109271018091700181110E94F3
:1014E000F5031092700182CD8EE00E942D02BC01A6
:1014F000990F880B990B0E94A20C9B01AC0160E034
:1015000070E88FEF93E40E948D0B20E030E040E420
:1015100052E40E94570D20E030EC4FE754E40E9463
:10152000FF0B2B013C0140926801509269016092CF
:101530006A0170926B018FE00E942D02BC01990F2D
:10154000880B990B0E94A20C9B01AC0160E070E833
:101550008FEF93E40E948D0B20E030E040E452E4F2
:101560000E94570D20E030EC4FE754E40E94FF0B3F
:101570004B015C018092600190926101A092620136
:10158000B092630180E10E942D02BC01990F880B8B
:10159000990B0E94A20C9B01AC0160E070E88FEFF8
:1015A00093E40E948D0B20E030E040E452E40E947E
:1015B000570D20E030EC4FE754E40E94FF0B6B0125
:1015C0007C01C0925801D0925901E0925A01F092E8
:1015D0005B0181E10E942D02BC01990F880B990BE0
:1015E0000E94A20C9B01AC0160E070E88FEF93E4D5
:1015F0000E948D0B20E030E040E452E40E94570D41
:1016000020E030EC4FE754E40E94FF0B69837A83BB
:101610008B839C836093500170935101809352019E
:101620009093530120E030E040EA51E4C301B2015D
:101630000E94520D87FF0BC020E030E040EA51ECE1
:10164000C301B2010E94FA0B60E018160CF061E0D1
:101650008BE00E94CE0120E030E040EA51E4C50179
:10166000B4010E94520D87FF0BC020E030E040EA39
:1016700051ECC501B4010E94FA0B60E018160CF0A1
:1016800061E08AE00E94CE0120E030E040EA51E4CF
:10169000C701B6010E94520D87FF0BC020E030E069
:1016A00040EA51ECC701B6010E94FA0B60E018163F
:1016B0000CF061E089E00E94CE0120E030E040EAD9
:1016C00051E469817A818B819C810E94520D87FF50
:1016D0001DCE20E030E040EA51EC69817A818B81B7
:1016E0009C810E94FA0B18160CF010CE60E00FCE11
:1016F00081E491E031CE81E491E04BCE81E491E050
:1017000065CE81E491E07FCEFB01DC0102C0059053
:101710000D9241505040D8F708955058BB27AA2742
:101720000E94A50B0C94180D0E940A0D38F00E941F
:10173000110D20F039F49F3F19F426F40C94070D95
:101740000EF4E095E7FB0C94010DE92F0E94290DA2
:1017500058F3BA17620773078407950720F079F4E6
:10176000A6F50C944B0D0EF4E0950B2EBA2FA02D80
:101770000B01B90190010C01CA01A0011124FF273E
:10178000591B99F0593F50F4503E68F11A16F04039
:10179000A22F232F342F4427585FF3CF4695379538
:1017A0002795A795F0405395C9F77EF41F16BA0BFD
:1017B000620B730B840BBAF09150A1F0FF0FBB1FAB
:1017C000661F771F881FC2F70EC0BA0F621F731FF4
:1017D000841F48F4879577956795B795F7959E3F51
:1017E00008F0B0CF9395880F08F09927EE0F9795E2
:1017F000879508950E94DD0C08F481E008950E9409
:10180000130C0C94180D0E94110D58F00E940A0D33
:1018100040F029F45F3F29F00C94010D51110C9414
:101820004C0D0C94070D0E94290D68F39923B1F318
:10183000552391F3951B550BBB27AA2762177307F6
:10184000840738F09F5F5F4F220F331F441FAA1F8A
:10185000A9F335D00E2E3AF0E0E832D09150504046
:10186000E695001CCAF72BD0FE2F29D0660F771FF4
:10187000881FBB1F261737074807AB07B0E809F0DA
:10188000BB0B802DBF01FF2793585F4F3AF09E3F5F
:10189000510578F00C94010D0C944C0D5F3FE4F36E
:1018A000983ED4F3869577956795B795F7959F5FA2
:1018B000C9F7880F911D9695879597F90895E1E0EE
:1018C000660F771F881FBB1F621773078407BA074D
:1018D00020F0621B730B840BBA0BEE1F88F7E095A8
:1018E00008950E94310D88F09F5798F0B92F9927DD
:1018F000B751B0F0E1F0660F771F881F991F1AF0FB
:10190000BA95C9F714C0B13091F00E944B0DB1E007
:1019100008950C944B0D672F782F8827B85F39F006
:10192000B93FCCF3869577956795B395D9F73EF493
:1019300090958095709561957F4F8F4F9F4F08953B
:10194000E89409C097FB3EF4909580957095619559
:101950007F4F8F4F9F4F9923A9F0F92F96E9BB270F
:101960009395F695879577956795B795F111F8CF8B
:10197000FAF4BB0F11F460FF1BC06F5F7F4F8F4FF6
:101980009F4F16C0882311F096E911C0772321F0EC
:101990009EE8872F762F05C0662371F096E8862F84
:1019A00070E060E02AF09A95660F771F881FDAF7DB
:1019B000880F9695879597F90895990F0008550F08
:1019C000AA0BE0E8FEEF16161706E807F907C0F0C5
:1019D00012161306E407F50798F0621B730B840BCD
:1019E000950B39F40A2661F0232B242B252B21F4A7
:1019F00008950A2609F4A140A6958FEF811D811D47
:101A0000089597F99F6780E870E060E008959FEF80
:101A100080EC089500240A94161617061806090685
:101A2000089500240A941216130614060506089554
:101A3000092E0394000C11F4882352F0BB0F40F4DC
:101A4000BF2B11F460FF04C06F5F7F4F8F4F9F4F1C
:101A5000089557FD9058440F551F59F05F3F71F09E
:101A60004795880F97FB991F61F09F3F79F0879505
:101A70000895121613061406551FF2CF4695F1DF8E
:101A800008C0161617061806991FF1CF869571051E
:101A9000610508940895E894BB2766277727CB0152
:101AA00097F908950E94DD0C08F48FEF08950E94C5
:101AB0006A0D0C94180D0E940A0D38F00E94110D49
:101AC00020F0952311F00C94010D0C94070D1124B6
:101AD0000C944C0D0E94290D70F3959FC1F3950F46
:101AE00050E0551F629FF001729FBB27F00DB11DA2
:101AF000639FAA27F00DB11DAA1F649F6627B00D32
:101B0000A11D661F829F2227B00DA11D621F739F1A
:101B1000B00DA11D621F839FA00D611D221F749F28
:101B20003327A00D611D231F849F600D211D822F6F
:101B3000762F6A2F11249F5750409AF0F1F0882396
:101B40004AF0EE0FFF1FBB1F661F771F881F9150C3
:101B50005040A9F79E3F510580F00C94010D0C9464
:101B60004C0D5F3FE4F3983ED4F3869577956795E7
:101B7000B795F795E7959F5FC1F7FE2B880F911DED
:101B80009695879597F908950E94DD0C880B990B1F
:101B9000089597FB072E16F4009407D077FD09D01F
:101BA0000E94FF0D07FC05D03EF4909581959F4F54
:101BB0000895709561957F4F0895A1E21A2EAA1B92
:101BC000BB1BFD010DC0AA1FBB1FEE1FFF1FA217ED
:101BD000B307E407F50720F0A21BB30BE40BF50BEA
:101BE000661F771F881F991F1A9469F76095709573
:101BF000809590959B01AC01BD01CF010895AA1B72
:101C0000BB1B51E107C0AA1FBB1FA617B70710F0E7
:101C1000A61BB70B881F991F5A95A9F78095909519
:101C2000BC01CD010895EE0FFF1F0590F491E02D4A
:061C30000994F894FFCFB7
:101C36000000000037039702C4028403F502D302B2
:101C4600E7020000000064059702A503A4036E6185
:101C56006E00696E66006F7666002020564F4C5403
:101C6600494D4554524F00563120002056726D732F
:101C760000205600563220005633200056342000ED
:00000001FF
