:100000000C944D010C9475010C9475010C947501C0
:100010000C9475010C9475010C9475010C94750188
:100020000C9475010C9475010C9475010C94750178
:100030000C9475010C9475010C9475010C94750168
:100040000C9484050C9475010C94F4050C94CE0565
:100050000C9475010C9475010C9475010C94750148
:100060000C9475010C947501000000000000005F05
:1000700000000007000700147F147F14242A7F2A41
:10008000122313086462364955225000050300000C
:10009000001C2241000041221C0014083E081408E4
:1000A000083E0808005030000008080808080060F2
:1000B00060000020100804023E5149453E00427F86
:1000C000400042615149462141454B311814127F8D
:1000D0001027454545393C4A494930017109050316
:1000E0003649494936064949291E0036360000007E
:1000F0005636000008142241001414141414004150
:100100002214080201510906324979413E7E11113B
:10011000117E7F494949363E414141227F4141227A
:100120001C7F494949417F090909013E4149497AF2
:100130007F0808087F00417F41002040413F017F48
:10014000081422417F404040407F020C027F7F0420
:1001500008107F3E4141413E7F090909063E415159
:10016000215E7F09192946464949493101017F012C
:10017000013F4040403F1F2040201F3F4038403F4C
:100180006314081463070870080761514945430068
:100190007F41410002040810200041417F00040219
:1001A0000102044040404040000102040020545439
:1001B00054787F48444438384444442038444448C0
:1001C0007F3854545418087E0901020C5252523E92
:1001D0007F0804047800447D40002040443D007FB7
:1001E0001028440000417F40007C041804787C08FB
:1001F00004047838444444387C1414140808141453
:10020000187C7C080404084854545420043F44409B
:10021000203C4040207C1C2040201C3C4030403C86
:1002200044281028440C5050503C4464544C440022
:100230000836410000007F00000041360800100829
:100240000810080000000000000000002400270043
:100250002A0000000000250028002B0004040404EC
:100260000404040402020202020203030303030360
:10027000010204081020408001020408102001023D
:100280000408102000000008000201000003040719
:100290000000000000000000260611241FBECFEF62
:1002A000D8E0DEBFCDBF11E0A0E0B1E0E0EBF6E1C9
:1002B00002C005900D92AE34B107D9F722E0AEE44A
:1002C000B1E001C01D92A235B207E1F711E0CDE423
:1002D000D1E004C02197FE010E94500BCC34D1071D
:1002E000C9F70E9465060C94560B0C94000090E030
:1002F000FC01EC57FD4F2491FC01E059FD4F349176
:10030000FC01E45AFD4FE491EE23C9F0222339F0B9
:10031000233001F1A8F4213019F1223029F1F0E065
:10032000EE0FFF1FEE5AFD4FA591B4918FB7F894D1
:10033000EC91611126C030953E233C938FBF089508
:100340002730A9F02830C9F0243049F78091800087
:100350008F7D03C0809180008F7780938000DFCFF6
:1003600084B58F7784BDDBCF84B58F7DFBCF809143
:10037000B0008F778093B000D2CF8091B0008F7D96
:10038000F9CF3E2BDACFCF93DF9390E0FC01E05919
:10039000FD4F2491845A9D4FFC0184918823D1F014
:1003A00090E0880F991FFC01E85BFD4FA591B49187
:1003B000FC01EE5AFD4FC591D49161110EC09FB75B
:1003C000F8948C91E22FE0958E238C932881E22380
:1003D000E8839FBFDF91CF9108958FB7F894EC9198
:1003E000E22BEC938FBFF6CF8E50806480937C001D
:1003F00080917A00806480937A0080917A0086FDF3
:10040000FCCF809178009091790008953FB7F894DF
:100410008091630190916401A0916501B0916601A2
:1004200026B5A89B05C02F3F19F00196A11DB11D4F
:100430003FBFBA2FA92F982F8827BC01CD01620F8B
:10044000711D811D911D42E0660F771F881F991F46
:100450004A95D1F708958F929F92AF92BF92CF9213
:10046000DF92EF92FF920E9406024B015C0184E64C
:10047000C82ED12CE12CF12C0E94060268197909B2
:100480008A099B09683E734081059105A8F321E024
:10049000C21AD108E108F10888EE880E83E0981EA0
:1004A000A11CB11CC114D104E104F10429F7FF908F
:1004B000EF90DF90CF90BF90AF909F908F90089576
:1004C000AF92BF92CF92DF92EF92FF920F931F9362
:1004D000CF93DF936C017B018B01040F151FEB01A0
:1004E0005E01AE18BF08C017D10759F06991D60157
:1004F000ED91FC910190F081E02DC6010995892BC9
:1005000079F7C501DF91CF911F910F91FF90EF9087
:10051000DF90CF90BF90AF900895FC01538D448D34
:10052000252F30E0842F90E0821B930B541710F09E
:10053000CF96089501970895FC01918D828D9817AB
:1005400061F0A28DAE0FBF2FB11D5D968C91928D83
:100550009F5F9F73928F90E008958FEF9FEF0895B4
:10056000FC01918D828D981731F0828DE80FF11D7D
:10057000858D90E008958FEF9FEF0895FC01918D98
:10058000228D892F90E0805C9F4F821B91098F7391
:100590009927089587E691E00E94BE0221E0892B09
:1005A00009F420E0822F089580E090E0892B29F063
:1005B0000E94CA0281110C9400000895FC01A48DD0
:1005C000A80FB92FB11DA35ABF4F2C91848D90E075
:1005D00001968F739927848FA689B7892C93A08958
:1005E000B1898C91837080648C93938D848D9813E2
:1005F00006C00288F389E02D80818F7D8083089575
:10060000EF92FF920F931F93CF93DF93EC0181E062
:10061000888F9B8D8C8D98131AC0E889F989808109
:1006200085FF15C09FB7F894EE89FF896083E8893C
:10063000F98980818370806480839FBF81E090E02E
:10064000DF91CF911F910F91FF90EF900895F62EBB
:100650000B8D10E00F5F1F4F0F731127E02E8C8D55
:100660008E110CC00FB607FCFACFE889F98980819A
:1006700085FFF5CFCE010E94DE02F1CFEB8DEC0FAE
:10068000FD2FF11DE35AFF4FF0829FB7F8940B8FB7
:10069000EA89FB8980818062CFCFCF93DF93EC0121
:1006A000888D8823B9F0AA89BB89E889F9898C915A
:1006B00085FD03C0808186FD0DC00FB607FCF7CF16
:1006C0008C9185FFF2CF808185FFEDCFCE010E9416
:1006D000DE02E9CFDF91CF910895089590E080E0A8
:1006E0000895FB0101900020E9F73197AF01461B07
:1006F000570BDC01ED91FC910280F381E02D099410
:100700008F929F92AF92BF92EF92FF920F931F939F
:10071000CF93DF93CDB7DEB7A1970FB6F894DEBFC6
:100720000FBECDBF7C01FA01CB0119A2223008F423
:100730002AE08E010F5D1F4F822E912CB12CA12C2F
:10074000BF01A50194010E941A0BF901CA016A3088
:100750000CF5605DD8016E938D01232B242B252B86
:1007600079F790E080E0109721F0BD01C7010E9469
:100770007103A1960FB6F894DEBF0FBECDBFDF9117
:10078000CF911F910F91FF90EF90BF90AF909F90EE
:100790008F900895695CDECFBC0184E092E00C94F8
:1007A00071032F923F924F925F926F927F928F923E
:1007B0009F92AF92BF92CF92DF92EF92FF921F93E0
:1007C000CF93DF93EC016A017B01722EAB0196019E
:1007D000CB01B6010E94010B6EE171E0811126C0D0
:1007E00046015701E894B7F82FEF3FEF4FE75FE777
:1007F000C501B4010E94010B81110CC02FEF3FEF26
:100800004FE75FE7C501B4010E94370962E271E07A
:10081000181664F02FEF3FEF4FE75FE4C701B60112
:100820000E948F0A1816B4F466E271E0CE01DF91DF
:10083000CF911F91FF90EF90DF90CF90BF90AF903E
:100840009F908F907F906F905F904F903F902F90F0
:100850000C9471032FEF3FEF4FE75FECC701B60138
:100860000E94370987FDE0CF20E030E0A901C701F1
:10087000B6010E943709312C212C87FF0DC0E88179
:10088000F9810190F081E02D6DE2CE0109951C0106
:10089000F7FAF094F7F8F09410E060E070E080E090
:1008A0009FE3711641F020E030E040E251E40E9405
:1008B0003C091F5FF6CFA70196010E94CB082B01D0
:1008C0003C010E94AE094B015C012AE0BC01A4017D
:1008D000CE010E9480037C01E20CF31C1123E1F1A4
:1008E000C501B4010E94DD099B01AC01C301B20145
:1008F0000E94CA084B015C01E881F9810190F081F6
:10090000E02D6EE2CE010995E80EF91E115020F19E
:1009100020E030E040E251E4C501B4010E94940AB5
:100920002B013C010E94AE094B01B12CA12C2AE005
:10093000B501A401CE010E948003E80EF91EC50195
:10094000B4010E94DD099B01AC01C301B2010E9408
:10095000CA084B015C01DACFC701DF91CF911F912B
:10096000FF90EF90DF90CF90BF90AF909F908F90CF
:100970007F906F905F904F903F902F900895EF92EF
:10098000FF920F931F93CF93DF93EC01042F8E817F
:100990000E94770160E088850E947701FC80ED80ED
:1009A00018E0602F661F6627661F8E2D0E94770154
:1009B000000F61E08F2D0E94770160E08F2D0E9473
:1009C0007701115071F761E08885DF91CF911F9118
:1009D0000F91FF90EF900C947701CF93DF93C4E0D9
:1009E000D2E01C8690E06B8529E3629F612D112483
:1009F000669570E06F5F7F4F0E94060B8D8740E821
:100A000060E0CE010E94BF044D85406460E0CE01ED
:100A1000DF91CF910C94BF04CF92DF92EF92FF92BF
:100A20000F931F93CF93DF9300D000D01F92CDB7C9
:100A3000DEB767FD66C07C01862F90E0603208F467
:100A40004FC0809725E0289FB001299F700D112489
:100A500068597F4F45E050E0CE0101960E94C108E1
:100A60008E010F5F1F4F680185E0C80ED11CF80191
:100A700041918F0161E0C7010E94BF040C151D0563
:100A8000B1F740E061E0C7010E94BF04F70184852F
:100A900090E00696628570E00E94060B8487892BA1
:100AA00079F4858590E00196638529E3629F612D45
:100AB0001124669570E06F5F7F4F0E94060B85875B
:100AC00081E090E00F900F900F900F900F90DF91CA
:100AD000CF911F910F91FF90EF90DF90CF900895ED
:100AE000FC013796EE0FFF1FEE0DFF1D00811181F7
:100AF0000115110509F0B7CF45E050E068E670E058
:100B0000ABCF90E080E0DECF1F920F920FB60F9236
:100B100011242F933F938F939F93AF93BF93809113
:100B20005F0190916001A0916101B09162013091EB
:100B30005E0123E0230F2D3758F50196A11DB11D4D
:100B400020935E0180935F0190936001A093610107
:100B5000B09362018091630190916401A09165015D
:100B6000B09166010196A11DB11D80936301909320
:100B70006401A0936501B0936601BF91AF919F910D
:100B80008F913F912F910F900FBE0F901F9018954E
:100B900026E8230F0296A11DB11DD2CF1F920F92FE
:100BA0000FB60F9211242F933F934F935F936F9340
:100BB0007F938F939F93AF93BF93EF93FF9387E6BA
:100BC00091E00E94DE02FF91EF91BF91AF919F9162
:100BD0008F917F916F915F914F913F912F910F90E6
:100BE0000FBE0F901F9018951F920F920FB60F9285
:100BF00011242F938F939F93EF93FF93E0917701AD
:100C0000F09178018081E0917D01F0917E0182FD7B
:100C10001BC09081809180018F5F8F732091810133
:100C2000821741F0E0918001F0E0E959FE4F958F85
:100C300080938001FF91EF919F918F912F910F9061
:100C40000FBE0F901F9018958081F4CFE7E6F1E07A
:100C50001382128288EE93E0A0E0B0E08483958353
:100C6000A683B78384E091E09183808385EC90E054
:100C70009587848784EC90E09787868780EC90E066
:100C8000918B808B81EC90E0938B828B82EC90E057
:100C9000958B848B86EC90E0978B868B118E128ED1
:100CA000138E148EE4E0F2E01382128286E191E06A
:100CB0009183808383E0848384E0858385E08683D9
:100CC00086E0878387E080870895789484B5826082
:100CD00084BD84B5816084BD85B5826085BD85B5E0
:100CE000816085BD80916E00816080936E0010925E
:100CF00081008091810082608093810080918100D9
:100D00008160809381008091800081608093800069
:100D10008091B10084608093B1008091B0008160C7
:100D20008093B00080917A00846080937A008091F3
:100D30007A00826080937A0080917A00816080934B
:100D40007A0080917A00806880937A001092C100C6
:100D500084E580930E0280E380930F0210920D02CF
:100D60001092100210921102E2E1F2E080E4DF0141
:100D70001D928A95E9F761E0809108020E94C30103
:100D800061E0809109020E94C30161E080910A0242
:100D90000E94C30161E080910B020E94C30161E0E7
:100DA00080910C020E94C30161E080910B020E94BD
:100DB000770161E080910C020E94770160E08091F0
:100DC0000B020E9477010E942B0261E080910B02CE
:100DD0000E94770141E260E084E092E00E94BF045B
:100DE00043E160E084E092E00E94BF0480910D0244
:100DF00042EC813039F440EE60E084E092E00E9401
:100E0000BF0445E060E084E092E00E94BF0440E25D
:100E100060E084E092E00E94BF0449E060E084E08A
:100E200092E00E94BF0480E00E94ED04D0E0C0E0A8
:100E300080910F0286958695869590910E02899FE6
:100E4000C0011124C817D90740F440E061E084E0F4
:100E500092E00E94BF042196EBCF80E00E94ED0457
:100E600048E060E084E092E00E94BF044CE060E073
:100E700084E092E00E94BF040E942B0240E860E000
:100E800084E092E00E94BF0440E460E084E092E0ED
:100E90000E94BF04E0917701F091780182E08083A5
:100EA000E0917301F09174011082E0917501F0916D
:100EB00076018FEC808310927F01E0917B01F091AD
:100EC0007C0186E08083E0917901F0917A01808154
:100ED00080618083E0917901F0917A01808188605E
:100EE0008083E0917901F0917A018081806880832C
:100EF000E0917901F0917A0180818F7D808360E0BB
:100F00008EE00E94C30160E08FE00E94C30160E0B8
:100F100080E10E94C30160E081E10E94C301C0E062
:100F2000D2E010E3EE24EA9483E0F82E90E0C92E9C
:100F300090E0D92E8EE00E94F4019E01281B390B0F
:100F4000129FC001139F900D1124B7010E94060B40
:100F5000072E000C880B990B0E94DF0960935A0141
:100F600070935B0180935C0190935D018FE00E9420
:100F7000F4019E01281B390B129FC001139F900D95
:100F80001124B7010E94060B072E000C880B990B49
:100F90000E94DF09609356017093570180935801B6
:100FA0009093590180E10E94F4019E01281B390BA6
:100FB000129FC001139F900D1124B7010E94060BD0
:100FC000072E000C880B990B0E94DF0960935201D9
:100FD00070935301809354019093550181E10E94D5
:100FE000F4019E01281B390B129FC001139F900D25
:100FF0001124B7010E94060B072E000C880B990BD9
:101000000E94DF0960934E0170934F01809350015D
:101010009093510180E00E94ED048AE291E00E94E9
:10102000CC0382E00E94ED0487E391E00E94CC03B0
:1010300040915A0150915B0160915C0170915D019A
:1010400022E084E092E00E94D1038CE391E00E94D0
:10105000CC0383E00E94ED048FE391E00E94CC0377
:10106000409156015091570160915801709159017A
:1010700022E084E092E00E94D1038CE391E00E94A0
:10108000CC0384E00E94ED0484E491E00E94CC0350
:10109000409152015091530160915401709155015A
:1010A00022E084E092E00E94D1038CE391E00E9470
:1010B000CC0385E00E94ED0489E491E00E94CC031A
:1010C00040914E0150914F0160915001709151013A
:1010D00022E084E092E00E94D1038CE391E00E9440
:1010E000CC0340915A0150915B0160915C01709179
:1010F0005D0122E087E691E00E94D10387E691E05E
:101100000E944D0340915601509157016091580142
:101110007091590122E087E691E00E94D10387E6B1
:1011200091E00E944D034091520150915301609112
:1011300054017091550122E087E691E00E94D103AD
:1011400087E691E00E944D0340914E0150914F017E
:10115000609150017091510122E087E691E00E9478
:10116000D10387E691E00E944D03C114D10409F434
:10117000E1CE0E94CA02882309F4DCCE0E9400005E
:10118000D9CEFB01DC0102C005900D9241505040C8
:10119000D8F708955058BB27AA270E94E2080C945C
:1011A000550A0E94470A38F00E944E0A20F039F48E
:1011B0009F3F19F426F40C94440A0EF4E095E7FBE3
:1011C0000C943E0AE92F0E94660A58F3BA17620788
:1011D00073078407950720F079F4A6F50C94880A24
:1011E0000EF4E0950B2EBA2FA02D0B01B901900142
:1011F0000C01CA01A0011124FF27591B99F0593F86
:1012000050F4503E68F11A16F040A22F232F342FCD
:101210004427585FF3CF469537952795A795F0401B
:101220005395C9F77EF41F16BA0B620B730B840B30
:10123000BAF09150A1F0FF0FBB1F661F771F881FE8
:10124000C2F70EC0BA0F621F731F841F48F4879540
:1012500077956795B795F7959E3F08F0B0CF939532
:10126000880F08F09927EE0F9795879508950E94AB
:101270001A0A08F481E008950E9450090C94550A56
:101280000E944E0A58F00E94470A40F029F45F3F3E
:1012900029F00C943E0A51110C94890A0C94440ACA
:1012A0000E94660A68F39923B1F3552391F3951BC5
:1012B000550BBB27AA2762177307840738F09F5F77
:1012C0005F4F220F331F441FAA1FA9F335D00E2EE4
:1012D0003AF0E0E832D091505040E695001CCAF751
:1012E0002BD0FE2F29D0660F771F881FBB1F261714
:1012F00037074807AB07B0E809F0BB0B802DBF01EB
:10130000FF2793585F4F3AF09E3F510578F00C94B9
:101310003E0A0C94890A5F3FE4F3983ED4F3869525
:1013200077956795B795F7959F5FC9F7880F911DDA
:101330009695879597F90895E1E0660F771F881FC6
:10134000BB1F621773078407BA0720F0621B730B79
:10135000840BBA0BEE1F88F7E09508950E946E0A81
:1013600088F09F5798F0B92F9927B751B0F0E1F066
:10137000660F771F881F991F1AF0BA95C9F714C016
:10138000B13091F00E94880AB1E008950C94880A67
:10139000672F782F8827B85F39F0B93FCCF386954F
:1013A00077956795B395D9F73EF4909580957095AC
:1013B00061957F4F8F4F9F4F0895E89409C097FB29
:1013C0003EF490958095709561957F4F8F4F9F4F1C
:1013D0009923A9F0F92F96E9BB279395F695879560
:1013E00077956795B795F111F8CFFAF4BB0F11F423
:1013F00060FF1BC06F5F7F4F8F4F9F4F16C08823CA
:1014000011F096E911C0772321F09EE8872F762FFF
:1014100005C0662371F096E8862F70E060E02AF040
:101420009A95660F771F881FDAF7880F969587952C
:1014300097F90895990F0008550FAA0BE0E8FEEF01
:1014400016161706E807F907C0F012161306E40788
:10145000F50798F0621B730B840B950B39F40A2681
:1014600061F0232B242B252B21F408950A2609F45F
:10147000A140A6958FEF811D811D089597F99F6763
:1014800080E870E060E008959FEF80EC089500240C
:101490000A941616170618060906089500240A94D9
:1014A00012161306140605060895092E0394000C5F
:1014B00011F4882352F0BB0F40F4BF2B11F460FFEE
:1014C00004C06F5F7F4F8F4F9F4F089557FD905817
:1014D000440F551F59F05F3F71F04795880F97FBF8
:1014E000991F61F09F3F79F08795089512161306B2
:1014F0001406551FF2CF4695F1DF08C016161706E1
:101500001806991FF1CF8695710561050894089515
:10151000E894BB2766277727CB0197F908950E94A7
:101520001A0A08F48FEF08950E94A70A0C94550A2E
:101530000E94470A38F00E944E0A20F0952311F0CD
:101540000C943E0A0C94440A11240C94890A0E94BB
:10155000660A70F3959FC1F3950F50E0551F629F87
:10156000F001729FBB27F00DB11D639FAA27F00DFC
:10157000B11DAA1F649F6627B00DA11D661F829F23
:101580002227B00DA11D621F739FB00DA11D621F08
:10159000839FA00D611D221F749F3327A00D611D25
:1015A000231F849F600D211D822F762F6A2F112407
:1015B0009F5750409AF0F1F088234AF0EE0FFF1F3A
:1015C000BB1F661F771F881F91505040A9F79E3F91
:1015D000510580F00C943E0A0C94890A5F3FE4F3B5
:1015E000983ED4F3869577956795B795F795E795E7
:1015F0009F5FC1F7FE2B880F911D9695879597F9F0
:1016000008950E941A0A880B990B089597FB072EDC
:1016100016F4009407D077FD09D00E943C0B07FC1C
:1016200005D03EF4909581959F4F089570956195F2
:101630007F4F0895A1E21A2EAA1BBB1BFD010DC00E
:10164000AA1FBB1FEE1FFF1FA217B307E407F50772
:1016500020F0A21BB30BE40BF50B661F771F881F4E
:10166000991F1A9469F760957095809590959B01E4
:10167000AC01BD01CF010895AA1BBB1B51E107C0FE
:10168000AA1FBB1FA617B70710F0A61BB70B881F12
:10169000991F5A95A9F780959095BC01CD010895A1
:1016A000EE0FFF1F0590F491E02D0994F894FFCF01
:1016B00000000000000360028D024D03BE029C0288
:1016C000B002000000000C0560026E036D036E6145
:1016D0006E00696E66006F7666002020564F4C548F
:1016E000494D4554524F0056313A2000205600567D
:0E16F000323A200056333A200056343A200099
:00000001FF
