:020000040000FA
:100000000C944D010C9475010C9475010C947501C0
:100010000C9475010C9475010C9475010C94750188
:100020000C9475010C9475010C9475010C94750178
:100030000C9475010C9475010C9475010C94750168
:100040000C945F040C9475010C9475010C9475016B
:100050000C9475010C9475010C9475010C94750148
:100060000C9475010C947501000000000000005F05
:1000700000000007000700147F147F14242A7F2A41
:10008000122313086462364955225000050300000C
:10009000001C2241000041221C0014083E081408E4
:1000A000083E0808005030000008080808080060F2
:1000B00060000020100804023E5149453E00427F86
:1000C000400042615149462141454B311814127F8D
:1000D0001027454545393C4A494930017109050316
:1000E0003649494936064949291E0036360000007E
:1000F0005636000008142241001414141414004150
:100100002214080201510906324979413E7E11113B
:10011000117E7F494949363E414141227F4141227A
:100120001C7F494949417F090909013E4149497AF2
:100130007F0808087F00417F41002040413F017F48
:10014000081422417F404040407F020C027F7F0420
:1001500008107F3E4141413E7F090909063E415159
:10016000215E7F09192946464949493101017F012C
:10017000013F4040403F1F2040201F3F4038403F4C
:100180006314081463070870080761514945430068
:100190007F41410002040810200041417F00040219
:1001A0000102044040404040000102040020545439
:1001B00054787F48444438384444442038444448C0
:1001C0007F3854545418087E0901020C5252523E92
:1001D0007F0804047800447D40002040443D007FB7
:1001E0001028440000417F40007C041804787C08FB
:1001F00004047838444444387C1414140808141453
:10020000187C7C080404084854545420043F44409B
:10021000203C4040207C1C2040201C3C4030403C86
:1002200044281028440C5050503C4464544C440022
:100230000836410000007F00000041360800100829
:100240000810080000000000000000080002010083
:100250000003040700000000000000000000000090
:10026000250028002B0000000000240027002A00A1
:10027000040404040404040402020202020203034C
:100280000303030301020408102040800102040854
:100290001020010204081020DC0511241FBECFEF3E
:1002A000D8E0DEBFCDBF11E0A0E0B1E0ECE0F1E1CD
:1002B00002C005900D92AC33B107D9F721E0ACE351
:1002C000B1E001C01D92A339B207E1F711E0CDE41E
:1002D000D1E004C02197FE010E947E08CC34D107F2
:1002E000C9F70E94A9040C9484080C94000090E0C3
:1002F000FC01EC57FD4F249180599D4FFC018491E6
:10030000882399F090E0880F991FFC01EA59FD4F6E
:10031000A591B491FC01E45AFD4F859194918FB75A
:10032000F894EC91E22BEC938FBF089590E0FC01E0
:10033000E85BFD4F2491FC01EC57FD4F3491FC012B
:10034000E059FD4FE491EE23C9F0222339F0233028
:1003500001F1A8F4213019F1223029F1F0E0EE0F7B
:10036000FF1FE45AFD4FA591B4918FB7F894EC911B
:10037000611126C030953E233C938FBF08952730EE
:10038000A9F02830C9F0243049F7809180008F7D92
:1003900003C0809180008F7780938000DFCF84B589
:1003A0008F7784BDDBCF84B58F7DFBCF8091B0008C
:1003B0008F778093B000D2CF8091B0008F7DF9CF3E
:1003C0003E2BDACF3FB7F8948091410190914201E2
:1003D000A0914301B091440126B5A89B05C02F3FD1
:1003E00019F00196A11DB11D3FBFBA2FA92F982F5B
:1003F0008827BC01CD01620F711D811D911D42E056
:10040000660F771F881F991F4A95D1F708958F921D
:100410009F92AF92BF92CF92DF92EF92FF920E9493
:10042000E2014B015C0184E6C82ED12CE12CF12CB9
:100430000E94E201681979098A099B09683E7340A4
:1004400081059105A8F321E0C21AD108E108F1085D
:1004500088EE880E83E0981EA11CB11CC114D10443
:10046000E104F10429F7FF90EF90DF90CF90BF9067
:10047000AF909F908F900895AF92BF92CF92DF92EE
:10048000EF92FF920F931F93CF93DF936C017B0149
:100490008B01040F151FEB015E01AE18BF08C017DA
:1004A000D10759F06991D601ED91FC910190F0814D
:1004B000E02DC6010995892B79F7C501DF91CF9110
:1004C0001F910F91FF90EF90DF90CF90BF90AF9072
:1004D0000895089590E080E00895FC0101900020C7
:1004E000E9F73197AF01481B590BBC0185E491E056
:1004F0000C943C028F929F92AF92BF920F931F93E6
:10050000CF93DF93CDB7DEB7A1970FB6F894DEBFD8
:100510000FBECDBF19A2423008F44AE08E010F5D34
:100520001F4F842E912CB12CA12CA50194010E9467
:100530004808E62FB901CA01EA30F4F4E05DD801B9
:10054000EE938D01232B242B252B79F790E080E06F
:10055000109719F0CD010E946D02A1960FB6F89484
:10056000DEBF0FBECDBFDF91CF911F910F91BF9026
:10057000AF909F908F900895E95CE1CFEF92FF924A
:100580000F931F93CF93DF93EC01042F8E810E9472
:10059000960160E088850E949601FC80ED8018E05D
:1005A000602F661F6627661F8E2D0E949601000F22
:1005B00061E08F2D0E94960160E08F2D0E949601D0
:1005C000115071F761E08885DF91CF911F910F91F4
:1005D000FF90EF900C949601CF93DF93C5E4D1E0A8
:1005E0001C8690E06B8529E3629F612D112466953E
:1005F00070E06F5F7F4F0E9434088D8740E860E0B5
:10060000CE010E94BE024D85406460E0CE01DF91C4
:10061000CF910C94BE02CF92DF92EF92FF920F9394
:100620001F93CF93DF9300D000D01F92CDB7DEB7DA
:1006300067FD66C07C01862F90E0603208F44FC0F1
:10064000809725E0289FB001299F700D11246859DB
:100650007F4F45E050E0CE0101960E94EF058E01EC
:100660000F5F1F4F680185E0C80ED11CF801419152
:100670008F0161E0C7010E94BE020C151D05B1F794
:1006800040E061E0C7010E94BE02F701848590E06E
:100690000696628570E00E9434088487892B79F47D
:1006A000858590E00196638529E3629F612D112481
:1006B000669570E06F5F7F4F0E943408858781E008
:1006C00090E00F900F900F900F900F90DF91CF91CF
:1006D0001F910F91FF90EF90DF90CF900895FC0154
:1006E0003796EE0FFF1FEE0DFF1D008111810115E2
:1006F000110509F0B7CF45E050E068E670E0ABCFF8
:1007000090E080E0DECF4F925F926F927F928F9267
:100710009F92AF92BF92CF92DF92EF92FF920F9390
:100720001F93CF936B017C01742EAC019B010E943F
:100730002F08882399F08CE091E0CF911F910F91C1
:10074000FF90EF90DF90CF90BF90AF909F908F90F1
:100750007F906F905F904F900C946D02460157010F
:10076000E894B7F82FEF3FEF4FE75FE7C501B4011B
:100770000E942F0881110DC02FEF3FEF4FE75FE779
:10078000C501B4010E94650618161CF480E191E0D1
:10079000D4CF2FEF3FEF4FE75FE4C701B6010E94D0
:1007A000BD0718161CF484E191E0C7CF2FEF3FEF8F
:1007B0004FE75FECC701B6010E94650687FDF3CFE6
:1007C00020E030E0A901C701B6010E94650610E0F3
:1007D00000E087FF0AC06DE285E491E00E940B0310
:1007E0008C01F7FAF094F7F8F094C0E060E070E064
:1007F00080E09FE37C1641F020E030E040E251E4ED
:100800000E946A06CF5FF6CFA70196010E94F90504
:100810002B013C010E94DC064B015C014AE00E9476
:100820007A027C01E00EF11ECC23C1F1C501B401B6
:100830000E940B079B01AC01C301B2010E94F805A5
:100840004B015C016EE285E491E00E940B03E80E2F
:10085000F91EC15018F120E030E040E251E4C5013A
:10086000B4010E94C2072B013C010E94DC064B012F
:10087000B12CA12C4AE0C501B4010E947A02E80E15
:10088000F91EC501B4010E940B079B01AC01C30115
:10089000B2010E94F8054B015C01DBCFC701CF918B
:1008A0001F910F91FF90EF90DF90CF90BF90AF908E
:1008B0009F908F907F906F905F904F9008951F92C0
:1008C0000F920FB60F9211242F933F938F939F9304
:1008D000AF93BF9380913D0190913E01A0913F0164
:1008E000B091400130913C0123E0230F2D3758F5A2
:1008F0000196A11DB11D20933C0180933D01909371
:100900003E01A0933F01B09340018091410190913D
:100910004201A0914301B09144010196A11DB11D76
:100920008093410190934201A0934301B09344010D
:10093000BF91AF919F918F913F912F910F900FBEDB
:100940000F901F90189526E8230F0296A11DB11D48
:10095000D2CF789484B5826084BD84B5816084BD33
:1009600085B5826085BD85B5816085BD80916E004D
:10097000816080936E00109281008091810082607E
:1009800080938100809181008160809381008091BB
:1009900080008160809380008091B10084608093AA
:1009A000B1008091B00081608093B00080917A00A6
:1009B000846080937A0080917A00826080937A00CC
:1009C00080917A00816080937A0080917A008068BB
:1009D00080937A001092C10084E580934F0180E3F8
:1009E0008093500110924E011092510110925201C9
:1009F000E3E5F1E080E4DF011D928A95E9F780915B
:100A000049010E94770180914A010E9477018091FB
:100A10004B010E94770180914C010E9477018091E7
:100A20004D010E94770161E080914C010E94960186
:100A300061E080914D010E94960160E080914C013F
:100A40000E9496010E94070261E080914C010E9481
:100A5000960141E260E085E491E00E94BE0243E13C
:100A600060E085E491E00E94BE0280914E0142EC7C
:100A7000813039F440EE60E085E491E00E94BE02EE
:100A800045E060E085E491E00E94BE0240E260E063
:100A900085E491E00E94BE0249E060E085E491E0D7
:100AA0000E94BE0280E00E94EC02D0E0C0E0809193
:100AB000500186958695869590914F01899FC0013A
:100AC0001124C817D90740F440E061E085E491E0C3
:100AD0000E94BE022196EBCF80E00E94EC0248E02B
:100AE00060E085E491E00E94BE024CE060E085E4B5
:100AF00091E00E94BE020E94070240E860E085E4A7
:100B000091E00E94BE0240E460E085E491E00E9432
:100B1000BE02C0E0D0E080E00E94EC0288E191E0FB
:100B20000E946D0282E00E94EC0285E291E00E9448
:100B30006D0242E060E070E0CB010E9483038AE234
:100B400091E00E946D0283E00E94EC028DE291E050
:100B50000E946D0242E060E070E0CB010E948303DE
:100B60008AE291E00E946D0284E00E94EC0282E33E
:100B700091E00E946D0242E060E070E0CB010E94D3
:100B800083038AE291E00E946D0285E00E94EC02FC
:100B900087E391E00E946D0242E060E070E0CB01EB
:100BA0000E9483038AE291E00E946D02209709F47B
:100BB000B2CF0E940000AFCFE5E4F1E013821282D1
:100BC00084E091E09183808383E0848384E0858363
:100BD00085E0868386E0878387E080870895FB0130
:100BE000DC0102C005900D9241505040D8F70895A5
:100BF0005058BB27AA270E9410060C9483070E9416
:100C0000750738F00E947C0720F039F49F3F19F4F3
:100C100026F40C9472070EF4E095E7FB0C946C0735
:100C2000E92F0E94940758F3BA17620773078407E5
:100C3000950720F079F4A6F50C94B6070EF4E0952C
:100C40000B2EBA2FA02D0B01B90190010C01CA0186
:100C5000A0011124FF27591B99F0593F50F4503E31
:100C600068F11A16F040A22F232F342F4427585F23
:100C7000F3CF469537952795A795F0405395C9F73B
:100C80007EF41F16BA0B620B730B840BBAF09150F3
:100C9000A1F0FF0FBB1F661F771F881FC2F70EC092
:100CA000BA0F621F731F841F48F487957795679565
:100CB000B795F7959E3F08F0B0CF9395880F08F051
:100CC0009927EE0F9795879508950E94480708F495
:100CD00081E008950E947E060C9483070E947C07A1
:100CE00058F00E94750740F029F45F3F29F00C94FA
:100CF0006C0751110C94B7070C9472070E9494076B
:100D000068F39923B1F3552391F3951B550BBB273A
:100D1000AA2762177307840738F09F5F5F4F220F7F
:100D2000331F441FAA1FA9F335D00E2E3AF0E0E876
:100D300032D091505040E695001CCAF72BD0FE2FC0
:100D400029D0660F771F881FBB1F26173707480754
:100D5000AB07B0E809F0BB0B802DBF01FF2793580C
:100D60005F4F3AF09E3F510578F00C946C070C945D
:100D7000B7075F3FE4F3983ED4F386957795679580
:100D8000B795F7959F5FC9F7880F911D9695879541
:100D900097F90895E1E0660F771F881FBB1F621760
:100DA00073078407BA0720F0621B730B840BBA0B1E
:100DB000EE1F88F7E09508950E949C0788F09F57E2
:100DC00098F0B92F9927B751B0F0E1F0660F771F6F
:100DD000881F991F1AF0BA95C9F714C0B13091F065
:100DE0000E94B607B1E008950C94B607672F782FDC
:100DF0008827B85F39F0B93FCCF38695779567952A
:100E0000B395D9F73EF490958095709561957F4F95
:100E10008F4F9F4F0895E89409C097FB3EF490953B
:100E20008095709561957F4F8F4F9F4F9923A9F0C3
:100E3000F92F96E9BB279395F69587957795679552
:100E4000B795F111F8CFFAF4BB0F11F460FF1BC096
:100E50006F5F7F4F8F4F9F4F16C0882311F096E929
:100E600011C0772321F09EE8872F762F05C06623D7
:100E700071F096E8862F70E060E02AF09A95660F90
:100E8000771F881FDAF7880F9695879597F9089549
:100E9000990F0008550FAA0BE0E8FEEF161617068B
:100EA000E807F907C0F012161306E407F50798F0F3
:100EB000621B730B840B950B39F40A2661F0232B0C
:100EC000242B252B21F408950A2609F4A140A69588
:100ED0008FEF811D811D089597F99F6780E870E06D
:100EE00060E008959FEF80EC089500240A941616A0
:100EF000170618060906089500240A941216130608
:100F0000140605060895092E0394000C11F4882395
:100F100052F0BB0F40F4BF2B11F460FF04C06F5FB1
:100F20007F4F8F4F9F4F089557FD9058440F551F87
:100F300059F05F3F71F04795880F97FB991F61F05B
:100F40009F3F79F087950895121613061406551FD2
:100F5000F2CF4695F1DF08C0161617061806991F3E
:100F6000F1CF86957105610508940895E894BB2733
:100F700066277727CB0197F908950E94480708F460
:100F80008FEF08950E94D5070C9483070E94750780
:100F900038F00E947C0720F0952311F00C946C0728
:100FA0000C94720711240C94B7070E94940770F3F5
:100FB000959FC1F3950F50E0551F629FF001729FFE
:100FC000BB27F00DB11D639FAA27F00DB11DAA1F0D
:100FD000649F6627B00DA11D661F829F2227B00D5A
:100FE000A11D621F739FB00DA11D621F839FA00DE5
:100FF000611D221F749F3327A00D611D231F849F35
:10100000600D211D822F762F6A2F11249F5750408B
:101010009AF0F1F088234AF0EE0FFF1FBB1F661F06
:10102000771F881F91505040A9F79E3F510580F0CF
:101030000C946C070C94B7075F3FE4F3983ED4F32D
:10104000869577956795B795F795E7959F5FC1F773
:10105000FE2B880F911D9695879597F908950E940C
:101060004807880B990B089597FB072E16F40094F8
:1010700007D077FD09D00E946A0807FC05D03EF42E
:10108000909581959F4F0895709561957F4F089534
:10109000A1E21A2EAA1BBB1BFD010DC0AA1FBB1F7C
:1010A000EE1FFF1FA217B307E407F50720F0A21BEE
:1010B000B30BE40BF50B661F771F881F991F1A945B
:1010C00069F760957095809590959B01AC01BD0185
:1010D000CF010895AA1BBB1B51E107C0AA1FBB1F6C
:1010E000A617B70710F0A61BB70B881F991F5A95B4
:1010F000A9F780959095BC01CD010895EE0FFF1FD3
:101100000590F491E02D0994F894FFCF00000000C1
:101110000B033C026A0269026E616E00696E660032
:101120006F7666002020564F4C54494D4554524F1F
:101130000056313A200020560056323A20005633ED
:081140003A200056343A200069
:107E0000112484B714BE81FFF0D085E080938100F7
:107E100082E08093C00088E18093C10086E0809377
:107E2000C20080E18093C4008EE0C9D0259A86E02C
:107E300020E33CEF91E0309385002093840096BBD3
:107E4000B09BFECF1D9AA8958150A9F7CC24DD24C4
:107E500088248394B5E0AB2EA1E19A2EF3E0BF2EE7
:107E6000A2D0813461F49FD0082FAFD0023811F036
:107E7000013811F484E001C083E08DD089C08234E0
:107E800011F484E103C0853419F485E0A6D080C0E4
:107E9000853579F488D0E82EFF2485D0082F10E0AE
:107EA000102F00270E291F29000F111F8ED06801E7
:107EB0006FC0863521F484E090D080E0DECF843638
:107EC00009F040C070D06FD0082F6DD080E0C81688
:107ED00080E7D80618F4F601B7BEE895C0E0D1E017
:107EE00062D089930C17E1F7F0E0CF16F0E7DF06D8
:107EF00018F0F601B7BEE89568D007B600FCFDCFD4
:107F0000A601A0E0B1E02C9130E011968C91119780
:107F100090E0982F8827822B932B1296FA010C0160
:107F200087BEE89511244E5F5F4FF1E0A038BF0790
:107F300051F7F601A7BEE89507B600FCFDCF97BE46
:107F4000E89526C08437B1F42ED02DD0F82E2BD052
:107F50003CD0F601EF2C8F010F5F1F4F84911BD097
:107F6000EA94F801C1F70894C11CD11CFA94CF0C13
:107F7000D11C0EC0853739F428D08EE10CD085E9AC
:107F80000AD08FE07ACF813511F488E018D01DD067
:107F900080E101D065CF982F8091C00085FFFCCF94
:107FA0009093C60008958091C00087FFFCCF809118
:107FB000C00084FD01C0A8958091C6000895E0E648
:107FC000F0E098E1908380830895EDDF803219F02E
:107FD00088E0F5DFFFCF84E1DECF1F93182FE3DFCA
:107FE0001150E9F7F2DF1F91089580E0E8DFEE27F6
:047FF000FF270994CA
:027FFE00040479
:00000001FF
